{
  "contractName": "Controller",
  "abi": [
    {
      "constant": true,
      "inputs": [],
      "name": "getUserWaterLimit",
      "outputs": [
        {
          "name": "",
          "type": "uint256"
        }
      ],
      "payable": false,
      "stateMutability": "view",
      "type": "function"
    },
    {
      "constant": true,
      "inputs": [
        {
          "name": "_user",
          "type": "address"
        }
      ],
      "name": "canWithdraw",
      "outputs": [
        {
          "name": "",
          "type": "bool"
        }
      ],
      "payable": false,
      "stateMutability": "view",
      "type": "function"
    },
    {
      "constant": false,
      "inputs": [
        {
          "name": "_value",
          "type": "uint256"
        }
      ],
      "name": "requestSale",
      "outputs": [],
      "payable": false,
      "stateMutability": "nonpayable",
      "type": "function"
    },
    {
      "constant": false,
      "inputs": [
        {
          "name": "_tokenAddr",
          "type": "address"
        }
      ],
      "name": "setTokenAddr",
      "outputs": [],
      "payable": false,
      "stateMutability": "nonpayable",
      "type": "function"
    },
    {
      "constant": false,
      "inputs": [],
      "name": "withdraw",
      "outputs": [
        {
          "name": "",
          "type": "bool"
        }
      ],
      "payable": false,
      "stateMutability": "nonpayable",
      "type": "function"
    },
    {
      "constant": false,
      "inputs": [
        {
          "name": "_user",
          "type": "address"
        }
      ],
      "name": "addUser",
      "outputs": [],
      "payable": false,
      "stateMutability": "nonpayable",
      "type": "function"
    },
    {
      "constant": true,
      "inputs": [
        {
          "name": "_user",
          "type": "address"
        }
      ],
      "name": "containsUser",
      "outputs": [
        {
          "name": "",
          "type": "bool"
        }
      ],
      "payable": false,
      "stateMutability": "view",
      "type": "function"
    },
    {
      "constant": false,
      "inputs": [
        {
          "name": "_limit",
          "type": "uint256"
        }
      ],
      "name": "setUserWaterLimit",
      "outputs": [],
      "payable": false,
      "stateMutability": "nonpayable",
      "type": "function"
    },
    {
      "constant": false,
      "inputs": [
        {
          "name": "_from",
          "type": "address"
        },
        {
          "name": "_to",
          "type": "address"
        },
        {
          "name": "_value",
          "type": "uint256"
        }
      ],
      "name": "exchange",
      "outputs": [],
      "payable": false,
      "stateMutability": "nonpayable",
      "type": "function"
    },
    {
      "constant": false,
      "inputs": [
        {
          "name": "_user",
          "type": "address"
        }
      ],
      "name": "removeUser",
      "outputs": [],
      "payable": false,
      "stateMutability": "nonpayable",
      "type": "function"
    },
    {
      "constant": true,
      "inputs": [],
      "name": "getTotalUsers",
      "outputs": [
        {
          "name": "",
          "type": "uint256"
        }
      ],
      "payable": false,
      "stateMutability": "view",
      "type": "function"
    },
    {
      "constant": true,
      "inputs": [],
      "name": "tokenAddress",
      "outputs": [
        {
          "name": "",
          "type": "address"
        }
      ],
      "payable": false,
      "stateMutability": "view",
      "type": "function"
    },
    {
      "constant": false,
      "inputs": [],
      "name": "generateToken",
      "outputs": [],
      "payable": false,
      "stateMutability": "nonpayable",
      "type": "function"
    },
    {
      "constant": true,
      "inputs": [
        {
          "name": "_user",
          "type": "address"
        }
      ],
      "name": "getBalance",
      "outputs": [
        {
          "name": "",
          "type": "uint256"
        }
      ],
      "payable": false,
      "stateMutability": "view",
      "type": "function"
    },
    {
      "constant": true,
      "inputs": [],
      "name": "token",
      "outputs": [
        {
          "name": "",
          "type": "address"
        }
      ],
      "payable": false,
      "stateMutability": "view",
      "type": "function"
    },
    {
      "inputs": [],
      "payable": false,
      "stateMutability": "nonpayable",
      "type": "constructor"
    }
  ],
  "bytecode": "0x606060405260006001556100116100bf565b604051809103906000f080151561002757600080fd5b600360006101000a81548173ffffffffffffffffffffffffffffffffffffffff021916908373ffffffffffffffffffffffffffffffffffffffff160217905550341561007257600080fd5b6000600281905550336000806101000a81548173ffffffffffffffffffffffffffffffffffffffff021916908373ffffffffffffffffffffffffffffffffffffffff1602179055506100cf565b604051610d258061355783390190565b613479806100de6000396000f300606060405260043610620000eb576000357c0100000000000000000000000000000000000000000000000000000000900463ffffffff16806314afb79a14620000f057806319262d30146200011c5780631bd7dddf14620001705780632ebd1e2814620001965780633ccfd60b14620001d2578063421b2d8b14620002025780636fe4f2b9146200023e578063811137c71462000292578063969e375614620002b857806398575188146200031c5780639be572f614620003585780639d76ea581462000384578063ac1c3d0414620003dc578063f8b2cb4f14620003f4578063fc0c546a1462000444575b600080fd5b3415620000fc57600080fd5b620001066200049c565b6040518082815260200191505060405180910390f35b34156200012857600080fd5b62000156600480803573ffffffffffffffffffffffffffffffffffffffff16906020019091905050620004a6565b604051808215151515815260200191505060405180910390f35b34156200017c57600080fd5b62000194600480803590602001909190505062000748565b005b3415620001a257600080fd5b620001d0600480803573ffffffffffffffffffffffffffffffffffffffff1690602001909190505062000836565b005b3415620001de57600080fd5b620001e862000934565b604051808215151515815260200191505060405180910390f35b34156200020e57600080fd5b6200023c600480803573ffffffffffffffffffffffffffffffffffffffff1690602001909190505062000aac565b005b34156200024a57600080fd5b62000278600480803573ffffffffffffffffffffffffffffffffffffffff1690602001909190505062000b88565b604051808215151515815260200191505060405180910390f35b34156200029e57600080fd5b620002b6600480803590602001909190505062000bde565b005b3415620002c457600080fd5b6200031a600480803573ffffffffffffffffffffffffffffffffffffffff1690602001909190803573ffffffffffffffffffffffffffffffffffffffff1690602001909190803590602001909190505062000c3f565b005b34156200032857600080fd5b62000356600480803573ffffffffffffffffffffffffffffffffffffffff1690602001909190505062000d6c565b005b34156200036457600080fd5b6200036e62000e48565b6040518082815260200191505060405180910390f35b34156200039057600080fd5b6200039a62000e52565b604051808273ffffffffffffffffffffffffffffffffffffffff1673ffffffffffffffffffffffffffffffffffffffff16815260200191505060405180910390f35b3415620003e857600080fd5b620003f262000e78565b005b34156200040057600080fd5b6200042e600480803573ffffffffffffffffffffffffffffffffffffffff1690602001909190505062000f32565b6040518082815260200191505060405180910390f35b34156200045057600080fd5b6200045a6200101d565b604051808273ffffffffffffffffffffffffffffffffffffffff1673ffffffffffffffffffffffffffffffffffffffff16815260200191505060405180910390f35b6000600254905090565b6000806000806000429350600360009054906101000a900473ffffffffffffffffffffffffffffffffffffffff1673ffffffffffffffffffffffffffffffffffffffff166392d66313856000604051602001526040518263ffffffff167c010000000000000000000000000000000000000000000000000000000002815260040180828152602001915050602060405180830381600087803b15156200054b57600080fd5b6102c65a03f115156200055d57600080fd5b505050604051805190509250600360009054906101000a900473ffffffffffffffffffffffffffffffffffffffff1673ffffffffffffffffffffffffffffffffffffffff1663a324ad24856000604051602001526040518263ffffffff167c010000000000000000000000000000000000000000000000000000000002815260040180828152602001915050602060405180830381600087803b15156200060357600080fd5b6102c65a03f115156200061557600080fd5b505050604051805190509150600360009054906101000a900473ffffffffffffffffffffffffffffffffffffffff1673ffffffffffffffffffffffffffffffffffffffff16638c8d98a0848460016000604051602001526040518463ffffffff167c0100000000000000000000000000000000000000000000000000000000028152600401808461ffff1661ffff1681526020018360ff1660ff1681526020018260ff1681526020019350505050602060405180830381600087803b1515620006dd57600080fd5b6102c65a03f11515620006ef57600080fd5b50505060405180519050905080600660008873ffffffffffffffffffffffffffffffffffffffff1673ffffffffffffffffffffffffffffffffffffffff1681526020019081526020016000205410945050505050919050565b600460009054906101000a900473ffffffffffffffffffffffffffffffffffffffff1673ffffffffffffffffffffffffffffffffffffffff16634e2fb80133836000604051602001526040518363ffffffff167c0100000000000000000000000000000000000000000000000000000000028152600401808373ffffffffffffffffffffffffffffffffffffffff1673ffffffffffffffffffffffffffffffffffffffff16815260200182815260200192505050602060405180830381600087803b15156200081657600080fd5b6102c65a03f115156200082857600080fd5b505050604051805190505050565b6000809054906101000a900473ffffffffffffffffffffffffffffffffffffffff1673ffffffffffffffffffffffffffffffffffffffff163373ffffffffffffffffffffffffffffffffffffffff161415620009315780600860006101000a81548173ffffffffffffffffffffffffffffffffffffffff021916908373ffffffffffffffffffffffffffffffffffffffff160217905550600860009054906101000a900473ffffffffffffffffffffffffffffffffffffffff16600460006101000a81548173ffffffffffffffffffffffffffffffffffffffff021916908373ffffffffffffffffffffffffffffffffffffffff1602179055505b50565b6000600560003373ffffffffffffffffffffffffffffffffffffffff1673ffffffffffffffffffffffffffffffffffffffff16815260200190815260200160002060009054906101000a900460ff1615156200098f57600080fd5b6200099a33620004a6565b1515620009a657600080fd5b600460009054906101000a900473ffffffffffffffffffffffffffffffffffffffff1673ffffffffffffffffffffffffffffffffffffffff1663312430c2336002546000604051602001526040518363ffffffff167c0100000000000000000000000000000000000000000000000000000000028152600401808373ffffffffffffffffffffffffffffffffffffffff1673ffffffffffffffffffffffffffffffffffffffff16815260200182815260200192505050602060405180830381600087803b151562000a7657600080fd5b6102c65a03f1151562000a8857600080fd5b50505060405180519050151562000a9e57600080fd5b62000aa93362001043565b90565b6000809054906101000a900473ffffffffffffffffffffffffffffffffffffffff1673ffffffffffffffffffffffffffffffffffffffff163373ffffffffffffffffffffffffffffffffffffffff16141562000b855762000b0d8162000b88565b15151562000b1a57600080fd5b6001600560008373ffffffffffffffffffffffffffffffffffffffff1673ffffffffffffffffffffffffffffffffffffffff16815260200190815260200160002060006101000a81548160ff0219169083151502179055506001600081548092919060010191905055505b50565b6000600560008373ffffffffffffffffffffffffffffffffffffffff1673ffffffffffffffffffffffffffffffffffffffff16815260200190815260200160002060009054906101000a900460ff169050919050565b6000809054906101000a900473ffffffffffffffffffffffffffffffffffffffff1673ffffffffffffffffffffffffffffffffffffffff163373ffffffffffffffffffffffffffffffffffffffff16141562000c3c57806002819055505b50565b600460009054906101000a900473ffffffffffffffffffffffffffffffffffffffff1673ffffffffffffffffffffffffffffffffffffffff16630ed2fc9584848460056000604051602001526040518563ffffffff167c0100000000000000000000000000000000000000000000000000000000028152600401808573ffffffffffffffffffffffffffffffffffffffff1673ffffffffffffffffffffffffffffffffffffffff1681526020018473ffffffffffffffffffffffffffffffffffffffff1673ffffffffffffffffffffffffffffffffffffffff168152602001838152602001828152602001945050505050602060405180830381600087803b151562000d4a57600080fd5b6102c65a03f1151562000d5c57600080fd5b5050506040518051905050505050565b6000809054906101000a900473ffffffffffffffffffffffffffffffffffffffff1673ffffffffffffffffffffffffffffffffffffffff163373ffffffffffffffffffffffffffffffffffffffff16141562000e455762000dcd8162000b88565b151562000dd957600080fd5b6000600560008373ffffffffffffffffffffffffffffffffffffffff1673ffffffffffffffffffffffffffffffffffffffff16815260200190815260200160002060006101000a81548160ff021916908315150217905550600160008154809291906001900391905055505b50565b6000600154905090565b600860009054906101000a900473ffffffffffffffffffffffffffffffffffffffff1681565b6000809054906101000a900473ffffffffffffffffffffffffffffffffffffffff1673ffffffffffffffffffffffffffffffffffffffff163373ffffffffffffffffffffffffffffffffffffffff16141562000f305762000ed8620012dc565b604051809103906000f080151562000eef57600080fd5b600460006101000a81548173ffffffffffffffffffffffffffffffffffffffff021916908373ffffffffffffffffffffffffffffffffffffffff1602179055505b565b6000600460009054906101000a900473ffffffffffffffffffffffffffffffffffffffff1673ffffffffffffffffffffffffffffffffffffffff166370a08231836000604051602001526040518263ffffffff167c0100000000000000000000000000000000000000000000000000000000028152600401808273ffffffffffffffffffffffffffffffffffffffff1673ffffffffffffffffffffffffffffffffffffffff168152602001915050602060405180830381600087803b151562000ffa57600080fd5b6102c65a03f115156200100c57600080fd5b505050604051805190509050919050565b600460009054906101000a900473ffffffffffffffffffffffffffffffffffffffff1681565b6000806000429250600360009054906101000a900473ffffffffffffffffffffffffffffffffffffffff1673ffffffffffffffffffffffffffffffffffffffff166392d66313846000604051602001526040518263ffffffff167c010000000000000000000000000000000000000000000000000000000002815260040180828152602001915050602060405180830381600087803b1515620010e557600080fd5b6102c65a03f11515620010f757600080fd5b505050604051805190509150600360009054906101000a900473ffffffffffffffffffffffffffffffffffffffff1673ffffffffffffffffffffffffffffffffffffffff1663a324ad24846000604051602001526040518263ffffffff167c010000000000000000000000000000000000000000000000000000000002815260040180828152602001915050602060405180830381600087803b15156200119d57600080fd5b6102c65a03f11515620011af57600080fd5b505050604051805190509050600360009054906101000a900473ffffffffffffffffffffffffffffffffffffffff1673ffffffffffffffffffffffffffffffffffffffff16638c8d98a0838360016000604051602001526040518463ffffffff167c0100000000000000000000000000000000000000000000000000000000028152600401808461ffff1661ffff1681526020018360ff1660ff1681526020018260ff1681526020019350505050602060405180830381600087803b15156200127757600080fd5b6102c65a03f115156200128957600080fd5b50505060405180519050600660008673ffffffffffffffffffffffffffffffffffffffff1673ffffffffffffffffffffffffffffffffffffffff1681526020019081526020016000208190555050505050565b60405161216080620012ee83390190560060606040526000600360146101000a81548160ff0219169083151502179055506040805190810160405280600581526020017f483249434f000000000000000000000000000000000000000000000000000000815250600490805190602001906200006c929190620001be565b506040805190810160405280600281526020017f6b6c00000000000000000000000000000000000000000000000000000000000081525060059080519060200190620000ba929190620001be565b506003600660006101000a81548160ff021916908360ff16021790555060006007553415620000e857600080fd5b33600360006101000a81548173ffffffffffffffffffffffffffffffffffffffff021916908373ffffffffffffffffffffffffffffffffffffffff1602179055506007546001819055506007546000803373ffffffffffffffffffffffffffffffffffffffff1673ffffffffffffffffffffffffffffffffffffffff1681526020019081526020016000208190555033600860006101000a81548173ffffffffffffffffffffffffffffffffffffffff021916908373ffffffffffffffffffffffffffffffffffffffff1602179055506200026d565b828054600181600116156101000203166002900490600052602060002090601f016020900481019282601f106200020157805160ff191683800117855562000232565b8280016001018555821562000232579182015b828111156200023157825182559160200191906001019062000214565b5b50905062000241919062000245565b5090565b6200026a91905b80821115620002665760008160009055506001016200024c565b5090565b90565b611ee3806200027d6000396000f3006060604052600436106100e6576000357c0100000000000000000000000000000000000000000000000000000000900463ffffffff16806305d2035b146100eb578063095ea7b3146101185780630ed2fc951461017257806318160ddd146101f457806323b872dd1461021d578063312430c21461029657806340c10f19146102f05780634e2fb8011461034a57806366188463146103a457806370a08231146103fe5780637d64bcb41461044b5780638da5cb5b14610478578063a9059cbb146104cd578063d73dd62314610527578063dd62ed3e14610581578063f2fde38b146105ed575b600080fd5b34156100f657600080fd5b6100fe610626565b604051808215151515815260200191505060405180910390f35b341561012357600080fd5b610158600480803573ffffffffffffffffffffffffffffffffffffffff16906020019091908035906020019091905050610639565b604051808215151515815260200191505060405180910390f35b341561017d57600080fd5b6101da600480803573ffffffffffffffffffffffffffffffffffffffff1690602001909190803573ffffffffffffffffffffffffffffffffffffffff1690602001909190803590602001909190803590602001909190505061072b565b604051808215151515815260200191505060405180910390f35b34156101ff57600080fd5b610207610b97565b6040518082815260200191505060405180910390f35b341561022857600080fd5b61027c600480803573ffffffffffffffffffffffffffffffffffffffff1690602001909190803573ffffffffffffffffffffffffffffffffffffffff16906020019091908035906020019091905050610ba1565b604051808215151515815260200191505060405180910390f35b34156102a157600080fd5b6102d6600480803573ffffffffffffffffffffffffffffffffffffffff16906020019091908035906020019091905050610f5b565b604051808215151515815260200191505060405180910390f35b34156102fb57600080fd5b610330600480803573ffffffffffffffffffffffffffffffffffffffff169060200190919080359060200190919050506110f1565b604051808215151515815260200191505060405180910390f35b341561035557600080fd5b61038a600480803573ffffffffffffffffffffffffffffffffffffffff169060200190919080359060200190919050506112d7565b604051808215151515815260200191505060405180910390f35b34156103af57600080fd5b6103e4600480803573ffffffffffffffffffffffffffffffffffffffff16906020019091908035906020019091905050611469565b604051808215151515815260200191505060405180910390f35b341561040957600080fd5b610435600480803573ffffffffffffffffffffffffffffffffffffffff169060200190919050506116fa565b6040518082815260200191505060405180910390f35b341561045657600080fd5b61045e611742565b604051808215151515815260200191505060405180910390f35b341561048357600080fd5b61048b61180a565b604051808273ffffffffffffffffffffffffffffffffffffffff1673ffffffffffffffffffffffffffffffffffffffff16815260200191505060405180910390f35b34156104d857600080fd5b61050d600480803573ffffffffffffffffffffffffffffffffffffffff16906020019091908035906020019091905050611830565b604051808215151515815260200191505060405180910390f35b341561053257600080fd5b610567600480803573ffffffffffffffffffffffffffffffffffffffff16906020019091908035906020019091905050611a4f565b604051808215151515815260200191505060405180910390f35b341561058c57600080fd5b6105d7600480803573ffffffffffffffffffffffffffffffffffffffff1690602001909190803573ffffffffffffffffffffffffffffffffffffffff16906020019091905050611c4b565b6040518082815260200191505060405180910390f35b34156105f857600080fd5b610624600480803573ffffffffffffffffffffffffffffffffffffffff16906020019091905050611cd2565b005b600360149054906101000a900460ff1681565b600081600260003373ffffffffffffffffffffffffffffffffffffffff1673ffffffffffffffffffffffffffffffffffffffff16815260200190815260200160002060008573ffffffffffffffffffffffffffffffffffffffff1673ffffffffffffffffffffffffffffffffffffffff168152602001908152602001600020819055508273ffffffffffffffffffffffffffffffffffffffff163373ffffffffffffffffffffffffffffffffffffffff167f8c5be1e5ebec7d5bd14f71427d1e84f3dd0314c0f7b2291e5b200ac8c7c3b925846040518082815260200191505060405180910390a36001905092915050565b6000806000600360009054906101000a900473ffffffffffffffffffffffffffffffffffffffff1673ffffffffffffffffffffffffffffffffffffffff163373ffffffffffffffffffffffffffffffffffffffff1614151561078c57600080fd5b60648410151561079b57600080fd5b600073ffffffffffffffffffffffffffffffffffffffff168673ffffffffffffffffffffffffffffffffffffffff16141515156107d757600080fd5b6000808873ffffffffffffffffffffffffffffffffffffffff1673ffffffffffffffffffffffffffffffffffffffff16815260200190815260200160002054851115151561082457600080fd5b600260008873ffffffffffffffffffffffffffffffffffffffff1673ffffffffffffffffffffffffffffffffffffffff16815260200190815260200160002060003373ffffffffffffffffffffffffffffffffffffffff1673ffffffffffffffffffffffffffffffffffffffff1681526020019081526020016000205485111515156108af57600080fd5b6108c28486611e2a90919063ffffffff16565b91506108d8606483611e6590919063ffffffff16565b91506108ed8286611e8090919063ffffffff16565b9050610940856000808a73ffffffffffffffffffffffffffffffffffffffff1673ffffffffffffffffffffffffffffffffffffffff16815260200190815260200160002054611e8090919063ffffffff16565b6000808973ffffffffffffffffffffffffffffffffffffffff1673ffffffffffffffffffffffffffffffffffffffff168152602001908152602001600020819055506109d3816000808973ffffffffffffffffffffffffffffffffffffffff1673ffffffffffffffffffffffffffffffffffffffff16815260200190815260200160002054611e9990919063ffffffff16565b6000808873ffffffffffffffffffffffffffffffffffffffff1673ffffffffffffffffffffffffffffffffffffffff16815260200190815260200160002081905550610aa485600260008a73ffffffffffffffffffffffffffffffffffffffff1673ffffffffffffffffffffffffffffffffffffffff16815260200190815260200160002060003373ffffffffffffffffffffffffffffffffffffffff1673ffffffffffffffffffffffffffffffffffffffff16815260200190815260200160002054611e8090919063ffffffff16565b600260008973ffffffffffffffffffffffffffffffffffffffff1673ffffffffffffffffffffffffffffffffffffffff16815260200190815260200160002060003373ffffffffffffffffffffffffffffffffffffffff1673ffffffffffffffffffffffffffffffffffffffff168152602001908152602001600020819055508573ffffffffffffffffffffffffffffffffffffffff168773ffffffffffffffffffffffffffffffffffffffff167fddf252ad1be2c89b69c2b068fc378daa952ba7f163c4a11628f55a4df523b3ef876040518082815260200191505060405180910390a3600192505050949350505050565b6000600154905090565b60008073ffffffffffffffffffffffffffffffffffffffff168373ffffffffffffffffffffffffffffffffffffffff1614151515610bde57600080fd5b6000808573ffffffffffffffffffffffffffffffffffffffff1673ffffffffffffffffffffffffffffffffffffffff168152602001908152602001600020548211151515610c2b57600080fd5b600260008573ffffffffffffffffffffffffffffffffffffffff1673ffffffffffffffffffffffffffffffffffffffff16815260200190815260200160002060003373ffffffffffffffffffffffffffffffffffffffff1673ffffffffffffffffffffffffffffffffffffffff168152602001908152602001600020548211151515610cb657600080fd5b610d07826000808773ffffffffffffffffffffffffffffffffffffffff1673ffffffffffffffffffffffffffffffffffffffff16815260200190815260200160002054611e8090919063ffffffff16565b6000808673ffffffffffffffffffffffffffffffffffffffff1673ffffffffffffffffffffffffffffffffffffffff16815260200190815260200160002081905550610d9a826000808673ffffffffffffffffffffffffffffffffffffffff1673ffffffffffffffffffffffffffffffffffffffff16815260200190815260200160002054611e9990919063ffffffff16565b6000808573ffffffffffffffffffffffffffffffffffffffff1673ffffffffffffffffffffffffffffffffffffffff16815260200190815260200160002081905550610e6b82600260008773ffffffffffffffffffffffffffffffffffffffff1673ffffffffffffffffffffffffffffffffffffffff16815260200190815260200160002060003373ffffffffffffffffffffffffffffffffffffffff1673ffffffffffffffffffffffffffffffffffffffff16815260200190815260200160002054611e8090919063ffffffff16565b600260008673ffffffffffffffffffffffffffffffffffffffff1673ffffffffffffffffffffffffffffffffffffffff16815260200190815260200160002060003373ffffffffffffffffffffffffffffffffffffffff1673ffffffffffffffffffffffffffffffffffffffff168152602001908152602001600020819055508273ffffffffffffffffffffffffffffffffffffffff168473ffffffffffffffffffffffffffffffffffffffff167fddf252ad1be2c89b69c2b068fc378daa952ba7f163c4a11628f55a4df523b3ef846040518082815260200191505060405180910390a3600190509392505050565b6000600360009054906101000a900473ffffffffffffffffffffffffffffffffffffffff1673ffffffffffffffffffffffffffffffffffffffff163373ffffffffffffffffffffffffffffffffffffffff16141515610fb957600080fd5b600360149054906101000a900460ff16151515610fd557600080fd5b610fea82600154611e9990919063ffffffff16565b600181905550816000808573ffffffffffffffffffffffffffffffffffffffff1673ffffffffffffffffffffffffffffffffffffffff168152602001908152602001600020819055508273ffffffffffffffffffffffffffffffffffffffff167f0f6798a560793a54c3bcfe86a93cde1e73087d944c0ea20544137d4121396885836040518082815260200191505060405180910390a28273ffffffffffffffffffffffffffffffffffffffff16600073ffffffffffffffffffffffffffffffffffffffff167fddf252ad1be2c89b69c2b068fc378daa952ba7f163c4a11628f55a4df523b3ef846040518082815260200191505060405180910390a36001905092915050565b6000600360009054906101000a900473ffffffffffffffffffffffffffffffffffffffff1673ffffffffffffffffffffffffffffffffffffffff163373ffffffffffffffffffffffffffffffffffffffff1614151561114f57600080fd5b600360149054906101000a900460ff1615151561116b57600080fd5b61118082600154611e9990919063ffffffff16565b6001819055506111d7826000808673ffffffffffffffffffffffffffffffffffffffff1673ffffffffffffffffffffffffffffffffffffffff16815260200190815260200160002054611e9990919063ffffffff16565b6000808573ffffffffffffffffffffffffffffffffffffffff1673ffffffffffffffffffffffffffffffffffffffff168152602001908152602001600020819055508273ffffffffffffffffffffffffffffffffffffffff167f0f6798a560793a54c3bcfe86a93cde1e73087d944c0ea20544137d4121396885836040518082815260200191505060405180910390a28273ffffffffffffffffffffffffffffffffffffffff16600073ffffffffffffffffffffffffffffffffffffffff167fddf252ad1be2c89b69c2b068fc378daa952ba7f163c4a11628f55a4df523b3ef846040518082815260200191505060405180910390a36001905092915050565b6000600360009054906101000a900473ffffffffffffffffffffffffffffffffffffffff1673ffffffffffffffffffffffffffffffffffffffff163373ffffffffffffffffffffffffffffffffffffffff1614151561133557600080fd5b81600260008573ffffffffffffffffffffffffffffffffffffffff1673ffffffffffffffffffffffffffffffffffffffff1681526020019081526020016000206000600860009054906101000a900473ffffffffffffffffffffffffffffffffffffffff1673ffffffffffffffffffffffffffffffffffffffff1673ffffffffffffffffffffffffffffffffffffffff16815260200190815260200160002081905550600860009054906101000a900473ffffffffffffffffffffffffffffffffffffffff1673ffffffffffffffffffffffffffffffffffffffff168373ffffffffffffffffffffffffffffffffffffffff167f8c5be1e5ebec7d5bd14f71427d1e84f3dd0314c0f7b2291e5b200ac8c7c3b925846040518082815260200191505060405180910390a36001905092915050565b600080600260003373ffffffffffffffffffffffffffffffffffffffff1673ffffffffffffffffffffffffffffffffffffffff16815260200190815260200160002060008573ffffffffffffffffffffffffffffffffffffffff1673ffffffffffffffffffffffffffffffffffffffff1681526020019081526020016000205490508083111561157a576000600260003373ffffffffffffffffffffffffffffffffffffffff1673ffffffffffffffffffffffffffffffffffffffff16815260200190815260200160002060008673ffffffffffffffffffffffffffffffffffffffff1673ffffffffffffffffffffffffffffffffffffffff1681526020019081526020016000208190555061160e565b61158d8382611e8090919063ffffffff16565b600260003373ffffffffffffffffffffffffffffffffffffffff1673ffffffffffffffffffffffffffffffffffffffff16815260200190815260200160002060008673ffffffffffffffffffffffffffffffffffffffff1673ffffffffffffffffffffffffffffffffffffffff168152602001908152602001600020819055505b8373ffffffffffffffffffffffffffffffffffffffff163373ffffffffffffffffffffffffffffffffffffffff167f8c5be1e5ebec7d5bd14f71427d1e84f3dd0314c0f7b2291e5b200ac8c7c3b925600260003373ffffffffffffffffffffffffffffffffffffffff1673ffffffffffffffffffffffffffffffffffffffff16815260200190815260200160002060008873ffffffffffffffffffffffffffffffffffffffff1673ffffffffffffffffffffffffffffffffffffffff168152602001908152602001600020546040518082815260200191505060405180910390a3600191505092915050565b60008060008373ffffffffffffffffffffffffffffffffffffffff1673ffffffffffffffffffffffffffffffffffffffff168152602001908152602001600020549050919050565b6000600360009054906101000a900473ffffffffffffffffffffffffffffffffffffffff1673ffffffffffffffffffffffffffffffffffffffff163373ffffffffffffffffffffffffffffffffffffffff161415156117a057600080fd5b600360149054906101000a900460ff161515156117bc57600080fd5b6001600360146101000a81548160ff0219169083151502179055507fae5184fba832cb2b1f702aca6117b8d265eaf03ad33eb133f19dde0f5920fa0860405160405180910390a16001905090565b600360009054906101000a900473ffffffffffffffffffffffffffffffffffffffff1681565b60008073ffffffffffffffffffffffffffffffffffffffff168373ffffffffffffffffffffffffffffffffffffffff161415151561186d57600080fd5b6000803373ffffffffffffffffffffffffffffffffffffffff1673ffffffffffffffffffffffffffffffffffffffff1681526020019081526020016000205482111515156118ba57600080fd5b61190b826000803373ffffffffffffffffffffffffffffffffffffffff1673ffffffffffffffffffffffffffffffffffffffff16815260200190815260200160002054611e8090919063ffffffff16565b6000803373ffffffffffffffffffffffffffffffffffffffff1673ffffffffffffffffffffffffffffffffffffffff1681526020019081526020016000208190555061199e826000808673ffffffffffffffffffffffffffffffffffffffff1673ffffffffffffffffffffffffffffffffffffffff16815260200190815260200160002054611e9990919063ffffffff16565b6000808573ffffffffffffffffffffffffffffffffffffffff1673ffffffffffffffffffffffffffffffffffffffff168152602001908152602001600020819055508273ffffffffffffffffffffffffffffffffffffffff163373ffffffffffffffffffffffffffffffffffffffff167fddf252ad1be2c89b69c2b068fc378daa952ba7f163c4a11628f55a4df523b3ef846040518082815260200191505060405180910390a36001905092915050565b6000611ae082600260003373ffffffffffffffffffffffffffffffffffffffff1673ffffffffffffffffffffffffffffffffffffffff16815260200190815260200160002060008673ffffffffffffffffffffffffffffffffffffffff1673ffffffffffffffffffffffffffffffffffffffff16815260200190815260200160002054611e9990919063ffffffff16565b600260003373ffffffffffffffffffffffffffffffffffffffff1673ffffffffffffffffffffffffffffffffffffffff16815260200190815260200160002060008573ffffffffffffffffffffffffffffffffffffffff1673ffffffffffffffffffffffffffffffffffffffff168152602001908152602001600020819055508273ffffffffffffffffffffffffffffffffffffffff163373ffffffffffffffffffffffffffffffffffffffff167f8c5be1e5ebec7d5bd14f71427d1e84f3dd0314c0f7b2291e5b200ac8c7c3b925600260003373ffffffffffffffffffffffffffffffffffffffff1673ffffffffffffffffffffffffffffffffffffffff16815260200190815260200160002060008773ffffffffffffffffffffffffffffffffffffffff1673ffffffffffffffffffffffffffffffffffffffff168152602001908152602001600020546040518082815260200191505060405180910390a36001905092915050565b6000600260008473ffffffffffffffffffffffffffffffffffffffff1673ffffffffffffffffffffffffffffffffffffffff16815260200190815260200160002060008373ffffffffffffffffffffffffffffffffffffffff1673ffffffffffffffffffffffffffffffffffffffff16815260200190815260200160002054905092915050565b600360009054906101000a900473ffffffffffffffffffffffffffffffffffffffff1673ffffffffffffffffffffffffffffffffffffffff163373ffffffffffffffffffffffffffffffffffffffff16141515611d2e57600080fd5b600073ffffffffffffffffffffffffffffffffffffffff168173ffffffffffffffffffffffffffffffffffffffff1614151515611d6a57600080fd5b8073ffffffffffffffffffffffffffffffffffffffff16600360009054906101000a900473ffffffffffffffffffffffffffffffffffffffff1673ffffffffffffffffffffffffffffffffffffffff167f8be0079c531659141344cd1fd0a4f28419497f9722a3daafe3b4186f6b6457e060405160405180910390a380600360006101000a81548173ffffffffffffffffffffffffffffffffffffffff021916908373ffffffffffffffffffffffffffffffffffffffff16021790555050565b6000806000841415611e3f5760009150611e5e565b8284029050828482811515611e5057fe5b04141515611e5a57fe5b8091505b5092915050565b6000808284811515611e7357fe5b0490508091505092915050565b6000828211151515611e8e57fe5b818303905092915050565b6000808284019050838110151515611ead57fe5b80915050929150505600a165627a7a72305820e2826d8f8fcdeb2065717e1646b368ad5fbc4b752da288799574aca05c7848010029a165627a7a723058200336c81db62215e6bf3c8c8410d190635b153986a2dcf3cfececc163fb19f8d400296060604052341561000f57600080fd5b610d078061001e6000396000f3006060604052600436106100d0576000357c0100000000000000000000000000000000000000000000000000000000900463ffffffff1680633e239e1a146100d55780634ac1ad781461011257806362ba96871461014f57806365c72840146101ba5780637f791833146101f75780638aa001fc146102565780638c8d98a0146102935780639054bdec146102e657806392d663131461035d578063a324ad241461039c578063a6f0e577146103d9578063b199993714610418578063b238ad0e1461044f578063fa93f8831461049c575b600080fd5b34156100e057600080fd5b6100f660048080359060200190919050506104d9565b604051808260ff1660ff16815260200191505060405180910390f35b341561011d57600080fd5b6101336004808035906020019091905050610506565b604051808260ff1660ff16815260200191505060405180910390f35b341561015a57600080fd5b6101a4600480803561ffff1690602001909190803560ff1690602001909190803560ff1690602001909190803560ff1690602001909190803560ff1690602001909190505061052d565b6040518082815260200191505060405180910390f35b34156101c557600080fd5b6101db6004808035906020019091905050610549565b604051808260ff1660ff16815260200191505060405180910390f35b341561020257600080fd5b610240600480803561ffff1690602001909190803560ff1690602001909190803560ff1690602001909190803560ff1690602001909190505061055f565b6040518082815260200191505060405180910390f35b341561026157600080fd5b610277600480803590602001909190505061057a565b604051808260ff1660ff16815260200191505060405180910390f35b341561029e57600080fd5b6102d0600480803561ffff1690602001909190803560ff1690602001909190803560ff16906020019091905050610590565b6040518082815260200191505060405180910390f35b34156102f157600080fd5b610347600480803561ffff1690602001909190803560ff1690602001909190803560ff1690602001909190803560ff1690602001909190803560ff1690602001909190803560ff169060200190919050506105ab565b6040518082815260200191505060405180910390f35b341561036857600080fd5b61037e6004808035906020019091905050610852565b604051808261ffff1661ffff16815260200191505060405180910390f35b34156103a757600080fd5b6103bd60048080359060200190919050506108fd565b604051808260ff1660ff16815260200191505060405180910390f35b34156103e457600080fd5b6103fe600480803561ffff16906020019091905050610913565b604051808215151515815260200191505060405180910390f35b341561042357600080fd5b6104396004808035906020019091905050610994565b6040518082815260200191505060405180910390f35b341561045a57600080fd5b610480600480803560ff1690602001909190803561ffff169060200190919050506109cd565b604051808260ff1660ff16815260200191505060405180910390f35b34156104a757600080fd5b6104bd6004808035906020019091905050610a99565b604051808260ff1660ff16815260200191505060405180910390f35b60006018603c80848115156104ea57fe5b048115156104f457fe5b048115156104fe57fe5b069050919050565b600060076004620151808481151561051a57fe5b040181151561052557fe5b069050919050565b600061053e868686868660006105ab565b905095945050505050565b600061055482610aba565b604001519050919050565b6000610570858585856000806105ab565b9050949350505050565b6000603c8281151561058857fe5b069050919050565b60006105a284848460008060006105ab565b90509392505050565b6000806105b6610c5b565b6107b291505b8861ffff168261ffff1610156105ff576105d582610913565b156105e8576301e28500830192506105f2565b6301e13380830192505b81806001019250506105bc565b601f816000600c8110151561061057fe5b602002019060ff16908160ff168152505061062a89610913565b1561065657601d816001600c8110151561064057fe5b602002019060ff16908160ff1681525050610679565b601c816001600c8110151561066757fe5b602002019060ff16908160ff16815250505b601f816002600c8110151561068a57fe5b602002019060ff16908160ff1681525050601e816003600c811015156106ac57fe5b602002019060ff16908160ff1681525050601f816004600c811015156106ce57fe5b602002019060ff16908160ff1681525050601e816005600c811015156106f057fe5b602002019060ff16908160ff1681525050601f816006600c8110151561071257fe5b602002019060ff16908160ff1681525050601f816007600c8110151561073457fe5b602002019060ff16908160ff1681525050601e816008600c8110151561075657fe5b602002019060ff16908160ff1681525050601f816009600c8110151561077857fe5b602002019060ff16908160ff1681525050601e81600a600c8110151561079a57fe5b602002019060ff16908160ff1681525050601f81600b600c811015156107bc57fe5b602002019060ff16908160ff1681525050600191505b8760ff168261ffff16101561081457806001830361ffff16600c811015156107f657fe5b602002015160ff1662015180028301925081806001019250506107d2565b6001870360ff166201518002830192508560ff16610e1002830192508460ff16603c02830192508360ff168301925082925050509695505050505050565b600080600080600092506301e133808581151561086b57fe5b046107b261ffff160191506108856107b261ffff16610994565b6108928361ffff16610994565b039050806301e285000283019250806107b2830361ffff16036301e1338002830192505b848311156108f2576108ca60018303610913565b156108dd576301e28500830392506108e7565b6301e13380830392505b6001820391506108b6565b819350505050919050565b600061090882610aba565b602001519050919050565b60008060048361ffff1681151561092657fe5b0661ffff1614151561093b576000905061098f565b600060648361ffff1681151561094d57fe5b0661ffff16141515610962576001905061098f565b60006101908361ffff1681151561097557fe5b0661ffff1614151561098a576000905061098f565b600190505b919050565b6000600182039150610190828115156109a957fe5b046064838115156109b657fe5b046004848115156109c357fe5b0403019050919050565b600060018360ff1614806109e4575060038360ff16145b806109f2575060058360ff16145b80610a00575060078360ff16145b80610a0e575060088360ff16145b80610a1c5750600a8360ff16145b80610a2a5750600c8360ff16145b15610a3857601f9050610a93565b60048360ff161480610a4d575060068360ff16145b80610a5b575060098360ff16145b80610a695750600b8360ff16145b15610a7757601e9050610a93565b610a8082610913565b15610a8e57601d9050610a93565b601c90505b92915050565b6000603c8083811515610aa857fe5b04811515610ab257fe5b069050919050565b610ac2610c87565b60008060008060009350610ad586610852565b856000019061ffff16908161ffff1681525050610af76107b261ffff16610994565b610b08866000015161ffff16610994565b039250826301e285000284019350826107b286600001510361ffff16036301e133800284019350600191505b600c8260ff16111515610b8c57610b4f8286600001516109cd565b60ff1662015180029050858482011115610b7a5781856020019060ff16908160ff1681525050610b8c565b80840193508180600101925050610b34565b600191505b610ba3856020015186600001516109cd565b60ff168260ff16111515610bea57858462015180011115610bd55781856040019060ff16908160ff1681525050610bea565b62015180840193508180600101925050610b91565b610bf3866104d9565b856060019060ff16908160ff1681525050610c0d86610a99565b856080019060ff16908160ff1681525050610c278661057a565b8560a0019060ff16908160ff1681525050610c4186610506565b8560c0019060ff16908160ff168152505050505050919050565b61018060405190810160405280600c905b600060ff16815260200190600190039081610c6c5790505090565b60e060405190810160405280600061ffff168152602001600060ff168152602001600060ff168152602001600060ff168152602001600060ff168152602001600060ff168152602001600060ff16815250905600a165627a7a72305820a0a7852e6ea1075585895280dc1191ca867d43ef9a3c95d44bb1f22d346aba0c0029",
  "source": "pragma solidity ^0.4.17;\n\nimport \"zeppelin-solidity/contracts/token/ERC20/StandardToken.sol\";\nimport \"./Date/DateTime.sol\";\nimport \"./Date/DateTimeAPI.sol\";\nimport \"./H2ICO.sol\";\n\n\ncontract Controller {\n   \n    address private owner;\n    uint private userCounter =0;\n    uint private userWaterLimit;\n    DateTime date = new DateTime();//on main network call actual contract\n    \n    H2ICO public token; \n    mapping (address => bool) validatingMap;\n    mapping (address => uint) lastTimeStamp;\n    mapping (address => uint) burnMap;\n    \n    address public tokenAddress;\n    \n    /**\n    * Description   Constructor initialising the controller contract\n    */\n    function Controller () public {\n        userWaterLimit = 0;\n        owner = msg.sender;\n       // token = new H2ICO ();\n    }\n\n    /**\n    Description:    Modifier to be used to ensure the sender is in fact the owner\n                    continues if true, stops executing if false\n    */\n     modifier isOwner {\n        if (msg.sender == owner) {\n            _;\n        }\n    }\n    \n    // Deprecated for now\n    // /**\n    // *   Description: sets the address ofthe token controlled by this contract.\n    // */\n    function setTokenAddr(address _tokenAddr) public isOwner {\n        tokenAddress = _tokenAddr;\n        token = H2ICO (tokenAddress);\n    }\n    \n    /** TO DO: Consider creating a modifier to ensure token is initialised\n    * Description   Proposed create token function\n    *               Owner should be this contract given this method is invoked\n    */\n    function generateToken() public isOwner {\n        token = new H2ICO ();\n    }\n\n    /**\n    * Description   Function allowing the owner only to set the water limit per user per month\n    * Param _limit  The amount that will be allocated to userWaterLimit for each user\n    *\n    */\n\n    function setUserWaterLimit(uint _limit) public isOwner {\n        userWaterLimit = _limit;\n    }\n\n    /**\n    * Description   Function allowing returning the current water limit\n    * return uint   The allocated Water Limit for each user\n    *\n    */\n    function getUserWaterLimit() public view returns (uint) {\n        return userWaterLimit;\n    }\n\n    /**\n    * Description   Function to add user to the list of valid residents.\n    *               Modifies a mapping from public address to boolean confirming or denying access\n    *               Additionally increases the number of users in the database\n    * Param _user   The public key to the users account to be mapped to true\n    */\n    function addUser(address _user)  public isOwner {\n        require(!containsUser(_user));\n        validatingMap[_user] = true;\n        userCounter++;\n    }\n    \n    \n   /**\n   * @dev Transfer tokens from one address to another burning a percentage of the tokens based on the user\n   * @param _from address The address which you want to send tokens from\n   * @param _to address The address which you want to transfer to\n   * @param _value uint256 the amount of tokens to be transferred\n   */\n    function exchange(address _from, address _to, uint256 _value) public  {\n        token.exchange(_from,_to,_value,5);//todo 5==burn rate change to dynamic burn rate.\n    }\n\n    \n    /**\n    * Description   Function returning the number of registered valid users\n    * returns uint  No. of users\n    */\n    function getTotalUsers() public constant returns (uint) {\n        return userCounter;  \n    }\n\n    /** \n    * Description   Function allowing users to withdraw their monthly allowance from the contract\n    *               Tokens are minted according to need and issued to the users\n    *               Only valid users are able to withdraw, as well as users are limited to withdrawing\n    *               once a month\n    * returns bool  Returns a true boolean if the transaction was successful\n    */\n    function withdraw() public returns (bool) {\n        require(validatingMap[msg.sender]);\n        require(canWithdraw(msg.sender));\n        require(token.mintSet(msg.sender, userWaterLimit));\n        mapTimestamp(msg.sender);\n    }\n    //todo - revert to msg sender\n    /** \n    * Description   Function determining whether the user has withdrawn their allocated amount\n    *               for the month already or not\n    * Param address The user's address that we are willing to check\n    * returns bool  Returns true if he is allowed to or false if he has already withdrawn his amount\n    */\n    function canWithdraw(address _user) public view returns(bool) {\n        uint timestamp = now;\n        uint16 thisYear = date.getYear(timestamp);\n        uint8 thisMonth = date.getMonth(timestamp);\n        uint currentTimestamp = date.toTimestamp(thisYear, thisMonth, 1);\n        return lastTimeStamp[_user]<currentTimestamp;\n    }\n\n    /** \n    * Description   Function updating the timestamp associated with a users most recent withdrawal\n    * Params _user  The public address of the user we are updating\n    */\n    function mapTimestamp(address _user) private {\n        uint timestamp = now;\n        uint16 thisYear = date.getYear(timestamp);\n        uint8 thisMonth = date.getMonth(timestamp);\n        lastTimeStamp[_user] = date.toTimestamp(thisYear, thisMonth, 1);\n    }\n\n    /**\n    * Description    Function confirming whether a user is a valid user in the network\n    * Param _user    The address of the user we are willing to determine the validity of\n    * returns bool   Returns true or false for valid or invalid   \n    */\n    function containsUser(address _user) public view returns(bool) {\n        return validatingMap[_user];\n        \n    }\n\n    /**\n    * Description   Function allowing the owner of the contract to remove users from the mapping of\n    *               valid users and reduces the number of users registered\n    * Param _user   Address of the user that is to be removed from the network\n    */\n    function removeUser(address _user) public isOwner {\n        require(containsUser(_user));\n        validatingMap[_user] = false;\n        userCounter--;\n    }\n\n    /**\n    * Description   Function to return the current date and time from the now function\n    * returns Date  Struct containing a uint value for month and uint value for year\n    */\n    // function getDate() public view returns(Date) {\n    //     Date memory rtrDate;\n    //     rtrDate.month = date.getMonth(_timeStamp);\n    //     rtrDate.year = date.getYear(_timeStamp);\n    //     return rtrDate;\n    // }\n\n    function getBalance (address _user) public view returns (uint256){\n        return token.balanceOf(_user);\n    }\n    //fix race condion\n    function requestSale(uint256 _value) public {\n        token.approveSale(msg.sender, _value);\n    }\n\n}",
  "sourcePath": "/home/shaheen/finalhackathon/UnlockTheBlock/oz-workspace/contracts/Controller.sol",
  "compiler": {
    "name": "solc",
    "version": "0.4.18+commit.9cf6e910.Emscripten.clang"
  },
  "schemaVersion": "1.0.1",
  "updatedAt": "2018-01-31T13:32:17.566Z"
}