{
  "contractName": "Controller",
  "abi": [
    {
      "constant": false,
      "inputs": [
        {
          "name": "_user",
          "type": "address"
        }
      ],
      "name": "addUser",
      "outputs": [],
      "payable": false,
      "stateMutability": "nonpayable",
      "type": "function"
    },
    {
      "constant": true,
      "inputs": [
        {
          "name": "_user",
          "type": "address"
        }
      ],
      "name": "containsUser",
      "outputs": [
        {
          "name": "",
          "type": "bool"
        }
      ],
      "payable": false,
      "stateMutability": "view",
      "type": "function"
    },
    {
      "constant": false,
      "inputs": [
        {
          "name": "_limit",
          "type": "uint256"
        }
      ],
      "name": "setUserWaterLimit",
      "outputs": [],
      "payable": false,
      "stateMutability": "nonpayable",
      "type": "function"
    },
    {
      "constant": false,
      "inputs": [
        {
          "name": "_user",
          "type": "address"
        }
      ],
      "name": "removeUser",
      "outputs": [],
      "payable": false,
      "stateMutability": "nonpayable",
      "type": "function"
    },
    {
      "constant": true,
      "inputs": [],
      "name": "getTotalUsers",
      "outputs": [
        {
          "name": "",
          "type": "uint256"
        }
      ],
      "payable": false,
      "stateMutability": "view",
      "type": "function"
    },
    {
      "inputs": [],
      "payable": false,
      "stateMutability": "nonpayable",
      "type": "constructor"
    }
  ],
  "bytecode": "0x6060604052600060015561001161007f565b604051809103906000f080151561002757600080fd5b600360006101000a81548173ffffffffffffffffffffffffffffffffffffffff021916908373ffffffffffffffffffffffffffffffffffffffff160217905550341561007257600080fd5b600060028190555061008f565b604051610d258061049283390190565b6103f48061009e6000396000f30060606040526004361061006d576000357c0100000000000000000000000000000000000000000000000000000000900463ffffffff168063421b2d8b146100725780636fe4f2b9146100ab578063811137c7146100fc578063985751881461011f5780639be572f614610158575b600080fd5b341561007d57600080fd5b6100a9600480803573ffffffffffffffffffffffffffffffffffffffff16906020019091905050610181565b005b34156100b657600080fd5b6100e2600480803573ffffffffffffffffffffffffffffffffffffffff16906020019091905050610244565b604051808215151515815260200191505060405180910390f35b341561010757600080fd5b61011d600480803590602001909190505061029a565b005b341561012a57600080fd5b610156600480803573ffffffffffffffffffffffffffffffffffffffff169060200190919050506102fa565b005b341561016357600080fd5b61016b6103be565b6040518082815260200191505060405180910390f35b6000809054906101000a900473ffffffffffffffffffffffffffffffffffffffff1673ffffffffffffffffffffffffffffffffffffffff163373ffffffffffffffffffffffffffffffffffffffff161415610241576001600460008373ffffffffffffffffffffffffffffffffffffffff1673ffffffffffffffffffffffffffffffffffffffff16815260200190815260200160002060006101000a81548160ff0219169083151502179055506001600081548092919060010191905055505b50565b6000600460008373ffffffffffffffffffffffffffffffffffffffff1673ffffffffffffffffffffffffffffffffffffffff16815260200190815260200160002060009054906101000a900460ff169050919050565b6000809054906101000a900473ffffffffffffffffffffffffffffffffffffffff1673ffffffffffffffffffffffffffffffffffffffff163373ffffffffffffffffffffffffffffffffffffffff1614156102f757806002819055505b50565b6000809054906101000a900473ffffffffffffffffffffffffffffffffffffffff1673ffffffffffffffffffffffffffffffffffffffff163373ffffffffffffffffffffffffffffffffffffffff1614156103bb576000600460008373ffffffffffffffffffffffffffffffffffffffff1673ffffffffffffffffffffffffffffffffffffffff16815260200190815260200160002060006101000a81548160ff021916908315150217905550600160008154809291906001900391905055505b50565b60006001549050905600a165627a7a72305820f11e1133c298770cc4ced71364b4a201e3f4dd07494fac00ac3d5085c4ba94d000296060604052341561000f57600080fd5b610d078061001e6000396000f3006060604052600436106100d0576000357c0100000000000000000000000000000000000000000000000000000000900463ffffffff1680633e239e1a146100d55780634ac1ad781461011257806362ba96871461014f57806365c72840146101ba5780637f791833146101f75780638aa001fc146102565780638c8d98a0146102935780639054bdec146102e657806392d663131461035d578063a324ad241461039c578063a6f0e577146103d9578063b199993714610418578063b238ad0e1461044f578063fa93f8831461049c575b600080fd5b34156100e057600080fd5b6100f660048080359060200190919050506104d9565b604051808260ff1660ff16815260200191505060405180910390f35b341561011d57600080fd5b6101336004808035906020019091905050610506565b604051808260ff1660ff16815260200191505060405180910390f35b341561015a57600080fd5b6101a4600480803561ffff1690602001909190803560ff1690602001909190803560ff1690602001909190803560ff1690602001909190803560ff1690602001909190505061052d565b6040518082815260200191505060405180910390f35b34156101c557600080fd5b6101db6004808035906020019091905050610549565b604051808260ff1660ff16815260200191505060405180910390f35b341561020257600080fd5b610240600480803561ffff1690602001909190803560ff1690602001909190803560ff1690602001909190803560ff1690602001909190505061055f565b6040518082815260200191505060405180910390f35b341561026157600080fd5b610277600480803590602001909190505061057a565b604051808260ff1660ff16815260200191505060405180910390f35b341561029e57600080fd5b6102d0600480803561ffff1690602001909190803560ff1690602001909190803560ff16906020019091905050610590565b6040518082815260200191505060405180910390f35b34156102f157600080fd5b610347600480803561ffff1690602001909190803560ff1690602001909190803560ff1690602001909190803560ff1690602001909190803560ff1690602001909190803560ff169060200190919050506105ab565b6040518082815260200191505060405180910390f35b341561036857600080fd5b61037e6004808035906020019091905050610852565b604051808261ffff1661ffff16815260200191505060405180910390f35b34156103a757600080fd5b6103bd60048080359060200190919050506108fd565b604051808260ff1660ff16815260200191505060405180910390f35b34156103e457600080fd5b6103fe600480803561ffff16906020019091905050610913565b604051808215151515815260200191505060405180910390f35b341561042357600080fd5b6104396004808035906020019091905050610994565b6040518082815260200191505060405180910390f35b341561045a57600080fd5b610480600480803560ff1690602001909190803561ffff169060200190919050506109cd565b604051808260ff1660ff16815260200191505060405180910390f35b34156104a757600080fd5b6104bd6004808035906020019091905050610a99565b604051808260ff1660ff16815260200191505060405180910390f35b60006018603c80848115156104ea57fe5b048115156104f457fe5b048115156104fe57fe5b069050919050565b600060076004620151808481151561051a57fe5b040181151561052557fe5b069050919050565b600061053e868686868660006105ab565b905095945050505050565b600061055482610aba565b604001519050919050565b6000610570858585856000806105ab565b9050949350505050565b6000603c8281151561058857fe5b069050919050565b60006105a284848460008060006105ab565b90509392505050565b6000806105b6610c5b565b6107b291505b8861ffff168261ffff1610156105ff576105d582610913565b156105e8576301e28500830192506105f2565b6301e13380830192505b81806001019250506105bc565b601f816000600c8110151561061057fe5b602002019060ff16908160ff168152505061062a89610913565b1561065657601d816001600c8110151561064057fe5b602002019060ff16908160ff1681525050610679565b601c816001600c8110151561066757fe5b602002019060ff16908160ff16815250505b601f816002600c8110151561068a57fe5b602002019060ff16908160ff1681525050601e816003600c811015156106ac57fe5b602002019060ff16908160ff1681525050601f816004600c811015156106ce57fe5b602002019060ff16908160ff1681525050601e816005600c811015156106f057fe5b602002019060ff16908160ff1681525050601f816006600c8110151561071257fe5b602002019060ff16908160ff1681525050601f816007600c8110151561073457fe5b602002019060ff16908160ff1681525050601e816008600c8110151561075657fe5b602002019060ff16908160ff1681525050601f816009600c8110151561077857fe5b602002019060ff16908160ff1681525050601e81600a600c8110151561079a57fe5b602002019060ff16908160ff1681525050601f81600b600c811015156107bc57fe5b602002019060ff16908160ff1681525050600191505b8760ff168261ffff16101561081457806001830361ffff16600c811015156107f657fe5b602002015160ff1662015180028301925081806001019250506107d2565b6001870360ff166201518002830192508560ff16610e1002830192508460ff16603c02830192508360ff168301925082925050509695505050505050565b600080600080600092506301e133808581151561086b57fe5b046107b261ffff160191506108856107b261ffff16610994565b6108928361ffff16610994565b039050806301e285000283019250806107b2830361ffff16036301e1338002830192505b848311156108f2576108ca60018303610913565b156108dd576301e28500830392506108e7565b6301e13380830392505b6001820391506108b6565b819350505050919050565b600061090882610aba565b602001519050919050565b60008060048361ffff1681151561092657fe5b0661ffff1614151561093b576000905061098f565b600060648361ffff1681151561094d57fe5b0661ffff16141515610962576001905061098f565b60006101908361ffff1681151561097557fe5b0661ffff1614151561098a576000905061098f565b600190505b919050565b6000600182039150610190828115156109a957fe5b046064838115156109b657fe5b046004848115156109c357fe5b0403019050919050565b600060018360ff1614806109e4575060038360ff16145b806109f2575060058360ff16145b80610a00575060078360ff16145b80610a0e575060088360ff16145b80610a1c5750600a8360ff16145b80610a2a5750600c8360ff16145b15610a3857601f9050610a93565b60048360ff161480610a4d575060068360ff16145b80610a5b575060098360ff16145b80610a695750600b8360ff16145b15610a7757601e9050610a93565b610a8082610913565b15610a8e57601d9050610a93565b601c90505b92915050565b6000603c8083811515610aa857fe5b04811515610ab257fe5b069050919050565b610ac2610c87565b60008060008060009350610ad586610852565b856000019061ffff16908161ffff1681525050610af76107b261ffff16610994565b610b08866000015161ffff16610994565b039250826301e285000284019350826107b286600001510361ffff16036301e133800284019350600191505b600c8260ff16111515610b8c57610b4f8286600001516109cd565b60ff1662015180029050858482011115610b7a5781856020019060ff16908160ff1681525050610b8c565b80840193508180600101925050610b34565b600191505b610ba3856020015186600001516109cd565b60ff168260ff16111515610bea57858462015180011115610bd55781856040019060ff16908160ff1681525050610bea565b62015180840193508180600101925050610b91565b610bf3866104d9565b856060019060ff16908160ff1681525050610c0d86610a99565b856080019060ff16908160ff1681525050610c278661057a565b8560a0019060ff16908160ff1681525050610c4186610506565b8560c0019060ff16908160ff168152505050505050919050565b61018060405190810160405280600c905b600060ff16815260200190600190039081610c6c5790505090565b60e060405190810160405280600061ffff168152602001600060ff168152602001600060ff168152602001600060ff168152602001600060ff168152602001600060ff168152602001600060ff16815250905600a165627a7a72305820386f6f4a2d5e8bd6d276825191a5df37f8b9e21fce6c3d383a34f72bd9053f7c0029",
  "source": "pragma solidity ^0.4.17;\n\nimport \"zeppelin-solidity/contracts/token/ERC20/StandardToken.sol\";\nimport \"./Date/DateTime.sol\";\nimport \"./Date/DateTimeAPI.sol\";\n\n\ncontract Controller {\n        address private owner;\n    uint private userCounter =0;\n    uint private userWaterLimit;\n    DateTime date = new DateTime();//on main network call actual contract\n    \n    mapping (address => bool) validatingMap;\n    mapping (address => uint) lastPurchaseDate;\n\n\n    function Controller () public {\n        userWaterLimit = 0;\n    }\n        /*\n        Description: Modifier to be used to ensure the sender is in fact the owner\n        continues if true, stops executing if false\n    */\n     modifier isOwner {\n        if (msg.sender == owner) {\n            _;\n        }\n    }\n\n/**\n    * Description Function allowing the owner only to set the water limit per user per month\n    * Param _limit The amount that will be allocated to userWaterLimit for each user\n    *\n    */\n\n    function setUserWaterLimit(uint _limit) public isOwner {\n        userWaterLimit = _limit;\n    }\n\n    /**\n    * Description   Function to add user to the list of valid residents.\n    *               Modifies a mapping from public address to boolean confirming or denying access\n    *               Additionally increases the number of users in the database\n    * Param _user   The public key to the users account to be mapped to true\n    */\n    function addUser(address _user)  public isOwner {\n        \n        validatingMap[_user] = true;\n        userCounter++;\n    }\n\n    /**\n    * Description   Function returning the number of registered valid users\n    * returns uint  No. of users\n    */\n    function getTotalUsers() public constant returns (uint) {\n        return userCounter;  \n    }\n\n    /** \n    * Description   Function allowing users to withdraw their monthly allowance from the contract\n    *               Tokens are minted according to need and issued to the users\n    *               Only valid users are able to withdraw, as well as users are limited to withdrawing\n    *               once a month\n    * returns       Returns a boolean if the transaction was successful\n    */\n\n/* Needs to be modified to work with Tokens\n    function withdraw() public returns (bool) {\n        require(validatingMap[msg.sender]);\n        return transferFrom(owner, msg.sender, userWaterLimit);\n    }\n/* \n\n    /**\n    * Description    Function confirming whether a user is a valid user in the network\n    * Param _user    The address of the user we are willing to determine the validity of\n    * returns bool   Returns true or false for valid or invalid   \n    */\n    function containsUser(address _user) public view returns(bool) {\n        return validatingMap[_user];\n        \n    }\n\n\n    /**\n    * Description   Function allowing the owner of the contract to remove users from the mapping of\n    *               valid users and reduces the number of users registered\n    * Param _user   Address of the user that is to be removed from the network\n    */\n    function removeUser(address _user)public isOwner {\n        validatingMap[_user] = false;\n        userCounter--;\n    }\n\n    /**\n    * Description   Function to return the current date and time from the now function\n    * returns Date  Struct containing a uint value for month and uint value for year\n    */\n    // function getDate() public view returns(Date) {\n    //     Date memory rtrDate;\n    //     rtrDate.month = date.getMonth(_timeStamp);\n    //     rtrDate.year = date.getYear(_timeStamp);\n    //     return rtrDate;\n    // }\n\n}",
  "sourcePath": "/Users/michaelsanne/Documents/Hackathon/Project/UnlockTheBlock/oz-workspace/contracts/Controller.sol",
  "compiler": {
    "name": "solc",
    "version": "0.4.18+commit.9cf6e910.Emscripten.clang"
  },
  "schemaVersion": "1.0.1",
  "updatedAt": "2018-01-30T10:23:31.562Z"
}