{
  "contractName": "H2ICO",
  "abi": [
    {
      "constant": false,
      "inputs": [
        {
          "name": "_spender",
          "type": "address"
        },
        {
          "name": "_value",
          "type": "uint256"
        }
      ],
      "name": "approve",
      "outputs": [
        {
          "name": "",
          "type": "bool"
        }
      ],
      "payable": false,
      "stateMutability": "nonpayable",
      "type": "function"
    },
    {
      "constant": true,
      "inputs": [],
      "name": "totalSupply",
      "outputs": [
        {
          "name": "",
          "type": "uint256"
        }
      ],
      "payable": false,
      "stateMutability": "view",
      "type": "function"
    },
    {
      "constant": false,
      "inputs": [
        {
          "name": "_from",
          "type": "address"
        },
        {
          "name": "_to",
          "type": "address"
        },
        {
          "name": "_value",
          "type": "uint256"
        }
      ],
      "name": "transferFrom",
      "outputs": [
        {
          "name": "",
          "type": "bool"
        }
      ],
      "payable": false,
      "stateMutability": "nonpayable",
      "type": "function"
    },
    {
      "constant": false,
      "inputs": [
        {
          "name": "_amount",
          "type": "uint256"
        }
      ],
      "name": "setSupply",
      "outputs": [],
      "payable": false,
      "stateMutability": "nonpayable",
      "type": "function"
    },
    {
      "constant": false,
      "inputs": [
        {
          "name": "_user",
          "type": "address"
        }
      ],
      "name": "addUser",
      "outputs": [],
      "payable": false,
      "stateMutability": "nonpayable",
      "type": "function"
    },
    {
      "constant": true,
      "inputs": [],
      "name": "getDate",
      "outputs": [
        {
          "components": [
            {
              "name": "month",
              "type": "uint8"
            },
            {
              "name": "year",
              "type": "uint16"
            }
          ],
          "name": "",
          "type": "tuple"
        }
      ],
      "payable": false,
      "stateMutability": "view",
      "type": "function"
    },
    {
      "constant": false,
      "inputs": [
        {
          "name": "_user",
          "type": "address"
        }
      ],
      "name": "withdraw",
      "outputs": [],
      "payable": false,
      "stateMutability": "nonpayable",
      "type": "function"
    },
    {
      "constant": false,
      "inputs": [
        {
          "name": "_spender",
          "type": "address"
        },
        {
          "name": "_subtractedValue",
          "type": "uint256"
        }
      ],
      "name": "decreaseApproval",
      "outputs": [
        {
          "name": "",
          "type": "bool"
        }
      ],
      "payable": false,
      "stateMutability": "nonpayable",
      "type": "function"
    },
    {
      "constant": true,
      "inputs": [
        {
          "name": "_user",
          "type": "address"
        }
      ],
      "name": "containsUser",
      "outputs": [
        {
          "name": "",
          "type": "bool"
        }
      ],
      "payable": false,
      "stateMutability": "view",
      "type": "function"
    },
    {
      "constant": true,
      "inputs": [
        {
          "name": "_owner",
          "type": "address"
        }
      ],
      "name": "balanceOf",
      "outputs": [
        {
          "name": "balance",
          "type": "uint256"
        }
      ],
      "payable": false,
      "stateMutability": "view",
      "type": "function"
    },
    {
      "constant": false,
      "inputs": [
        {
          "name": "_limit",
          "type": "uint256"
        }
      ],
      "name": "setUserWaterLimit",
      "outputs": [],
      "payable": false,
      "stateMutability": "nonpayable",
      "type": "function"
    },
    {
      "constant": false,
      "inputs": [
        {
          "name": "_user",
          "type": "address"
        }
      ],
      "name": "removeUser",
      "outputs": [],
      "payable": false,
      "stateMutability": "nonpayable",
      "type": "function"
    },
    {
      "constant": true,
      "inputs": [],
      "name": "getTotalUsers",
      "outputs": [
        {
          "name": "",
          "type": "uint256"
        }
      ],
      "payable": false,
      "stateMutability": "view",
      "type": "function"
    },
    {
      "constant": false,
      "inputs": [
        {
          "name": "_to",
          "type": "address"
        },
        {
          "name": "_value",
          "type": "uint256"
        }
      ],
      "name": "transfer",
      "outputs": [
        {
          "name": "",
          "type": "bool"
        }
      ],
      "payable": false,
      "stateMutability": "nonpayable",
      "type": "function"
    },
    {
      "constant": false,
      "inputs": [
        {
          "name": "_amount",
          "type": "uint256"
        }
      ],
      "name": "increasedSupply",
      "outputs": [
        {
          "name": "",
          "type": "uint256"
        }
      ],
      "payable": false,
      "stateMutability": "nonpayable",
      "type": "function"
    },
    {
      "constant": false,
      "inputs": [
        {
          "name": "_spender",
          "type": "address"
        },
        {
          "name": "_addedValue",
          "type": "uint256"
        }
      ],
      "name": "increaseApproval",
      "outputs": [
        {
          "name": "",
          "type": "bool"
        }
      ],
      "payable": false,
      "stateMutability": "nonpayable",
      "type": "function"
    },
    {
      "constant": true,
      "inputs": [
        {
          "name": "_owner",
          "type": "address"
        },
        {
          "name": "_spender",
          "type": "address"
        }
      ],
      "name": "allowance",
      "outputs": [
        {
          "name": "",
          "type": "uint256"
        }
      ],
      "payable": false,
      "stateMutability": "view",
      "type": "function"
    },
    {
      "inputs": [],
      "payable": false,
      "stateMutability": "nonpayable",
      "type": "constructor"
    },
    {
      "anonymous": false,
      "inputs": [
        {
          "indexed": true,
          "name": "owner",
          "type": "address"
        },
        {
          "indexed": true,
          "name": "spender",
          "type": "address"
        },
        {
          "indexed": false,
          "name": "value",
          "type": "uint256"
        }
      ],
      "name": "Approval",
      "type": "event"
    },
    {
      "anonymous": false,
      "inputs": [
        {
          "indexed": true,
          "name": "from",
          "type": "address"
        },
        {
          "indexed": true,
          "name": "to",
          "type": "address"
        },
        {
          "indexed": false,
          "name": "value",
          "type": "uint256"
        }
      ],
      "name": "Transfer",
      "type": "event"
    }
  ],
  "bytecode": "0x60606040526040805190810160405280600581526020017f483249434f0000000000000000000000000000000000000000000000000000008152506003908051906020019062000051929190620001d0565b506040805190810160405280600281526020017f6b6c000000000000000000000000000000000000000000000000000000000000815250600490805190602001906200009f929190620001d0565b506003600560006101000a81548160ff021916908360ff16021790555060006006556000600855620000d062000257565b604051809103906000f0801515620000e757600080fd5b600a60006101000a81548173ffffffffffffffffffffffffffffffffffffffff021916908373ffffffffffffffffffffffffffffffffffffffff16021790555034156200013357600080fd5b6006546001819055506006546000803373ffffffffffffffffffffffffffffffffffffffff1673ffffffffffffffffffffffffffffffffffffffff1681526020019081526020016000208190555033600760006101000a81548173ffffffffffffffffffffffffffffffffffffffff021916908373ffffffffffffffffffffffffffffffffffffffff160217905550600060098190555062000290565b828054600181600116156101000203166002900490600052602060002090601f016020900481019282601f106200021357805160ff191683800117855562000244565b8280016001018555821562000244579182015b828111156200024357825182559160200191906001019062000226565b5b50905062000253919062000268565b5090565b604051610d258062001ae783390190565b6200028d91905b80821115620002895760008160009055506001016200026f565b5090565b90565b61184780620002a06000396000f3006060604052600436106100f1576000357c0100000000000000000000000000000000000000000000000000000000900463ffffffff168063095ea7b3146100f657806318160ddd1461015057806323b872dd146101795780633b4c4b25146101f2578063421b2d8b14610215578063430fe9c11461024e57806351cff8d91461027757806366188463146102b05780636fe4f2b91461030a57806370a082311461035b578063811137c7146103a857806398575188146103cb5780639be572f614610404578063a9059cbb1461042d578063bb79217314610487578063d73dd623146104be578063dd62ed3e14610518575b600080fd5b341561010157600080fd5b610136600480803573ffffffffffffffffffffffffffffffffffffffff16906020019091908035906020019091905050610584565b604051808215151515815260200191505060405180910390f35b341561015b57600080fd5b610163610676565b6040518082815260200191505060405180910390f35b341561018457600080fd5b6101d8600480803573ffffffffffffffffffffffffffffffffffffffff1690602001909190803573ffffffffffffffffffffffffffffffffffffffff16906020019091908035906020019091905050610680565b604051808215151515815260200191505060405180910390f35b34156101fd57600080fd5b6102136004808035906020019091905050610a3a565b005b341561022057600080fd5b61024c600480803573ffffffffffffffffffffffffffffffffffffffff16906020019091905050610b00565b005b341561025957600080fd5b610261610bc4565b6040518082815260200191505060405180910390f35b341561028257600080fd5b6102ae600480803573ffffffffffffffffffffffffffffffffffffffff16906020019091905050610d6d565b005b34156102bb57600080fd5b6102f0600480803573ffffffffffffffffffffffffffffffffffffffff16906020019091908035906020019091905050610e4f565b604051808215151515815260200191505060405180910390f35b341561031557600080fd5b610341600480803573ffffffffffffffffffffffffffffffffffffffff169060200190919050506110e0565b604051808215151515815260200191505060405180910390f35b341561036657600080fd5b610392600480803573ffffffffffffffffffffffffffffffffffffffff16906020019091905050611136565b6040518082815260200191505060405180910390f35b34156103b357600080fd5b6103c9600480803590602001909190505061117e565b005b34156103d657600080fd5b610402600480803573ffffffffffffffffffffffffffffffffffffffff169060200190919050506111df565b005b341561040f57600080fd5b6104176112a4565b6040518082815260200191505060405180910390f35b341561043857600080fd5b61046d600480803573ffffffffffffffffffffffffffffffffffffffff169060200190919080359060200190919050506112ae565b604051808215151515815260200191505060405180910390f35b341561049257600080fd5b6104a860048080359060200190919050506114cd565b6040518082815260200191505060405180910390f35b34156104c957600080fd5b6104fe600480803573ffffffffffffffffffffffffffffffffffffffff16906020019091908035906020019091905050611540565b604051808215151515815260200191505060405180910390f35b341561052357600080fd5b61056e600480803573ffffffffffffffffffffffffffffffffffffffff1690602001909190803573ffffffffffffffffffffffffffffffffffffffff1690602001909190505061173c565b6040518082815260200191505060405180910390f35b600081600260003373ffffffffffffffffffffffffffffffffffffffff1673ffffffffffffffffffffffffffffffffffffffff16815260200190815260200160002060008573ffffffffffffffffffffffffffffffffffffffff1673ffffffffffffffffffffffffffffffffffffffff168152602001908152602001600020819055508273ffffffffffffffffffffffffffffffffffffffff163373ffffffffffffffffffffffffffffffffffffffff167f8c5be1e5ebec7d5bd14f71427d1e84f3dd0314c0f7b2291e5b200ac8c7c3b925846040518082815260200191505060405180910390a36001905092915050565b6000600154905090565b60008073ffffffffffffffffffffffffffffffffffffffff168373ffffffffffffffffffffffffffffffffffffffff16141515156106bd57600080fd5b6000808573ffffffffffffffffffffffffffffffffffffffff1673ffffffffffffffffffffffffffffffffffffffff16815260200190815260200160002054821115151561070a57600080fd5b600260008573ffffffffffffffffffffffffffffffffffffffff1673ffffffffffffffffffffffffffffffffffffffff16815260200190815260200160002060003373ffffffffffffffffffffffffffffffffffffffff1673ffffffffffffffffffffffffffffffffffffffff16815260200190815260200160002054821115151561079557600080fd5b6107e6826000808773ffffffffffffffffffffffffffffffffffffffff1673ffffffffffffffffffffffffffffffffffffffff168152602001908152602001600020546117c390919063ffffffff16565b6000808673ffffffffffffffffffffffffffffffffffffffff1673ffffffffffffffffffffffffffffffffffffffff16815260200190815260200160002081905550610879826000808673ffffffffffffffffffffffffffffffffffffffff1673ffffffffffffffffffffffffffffffffffffffff168152602001908152602001600020546117dc90919063ffffffff16565b6000808573ffffffffffffffffffffffffffffffffffffffff1673ffffffffffffffffffffffffffffffffffffffff1681526020019081526020016000208190555061094a82600260008773ffffffffffffffffffffffffffffffffffffffff1673ffffffffffffffffffffffffffffffffffffffff16815260200190815260200160002060003373ffffffffffffffffffffffffffffffffffffffff1673ffffffffffffffffffffffffffffffffffffffff168152602001908152602001600020546117c390919063ffffffff16565b600260008673ffffffffffffffffffffffffffffffffffffffff1673ffffffffffffffffffffffffffffffffffffffff16815260200190815260200160002060003373ffffffffffffffffffffffffffffffffffffffff1673ffffffffffffffffffffffffffffffffffffffff168152602001908152602001600020819055508273ffffffffffffffffffffffffffffffffffffffff168473ffffffffffffffffffffffffffffffffffffffff167fddf252ad1be2c89b69c2b068fc378daa952ba7f163c4a11628f55a4df523b3ef846040518082815260200191505060405180910390a3600190509392505050565b600760009054906101000a900473ffffffffffffffffffffffffffffffffffffffff1673ffffffffffffffffffffffffffffffffffffffff163373ffffffffffffffffffffffffffffffffffffffff161415610afd5780600080600760009054906101000a900473ffffffffffffffffffffffffffffffffffffffff1673ffffffffffffffffffffffffffffffffffffffff1673ffffffffffffffffffffffffffffffffffffffff16815260200190815260200160002081905550806001819055505b50565b600760009054906101000a900473ffffffffffffffffffffffffffffffffffffffff1673ffffffffffffffffffffffffffffffffffffffff163373ffffffffffffffffffffffffffffffffffffffff161415610bc1576001600b60008373ffffffffffffffffffffffffffffffffffffffff1673ffffffffffffffffffffffffffffffffffffffff16815260200190815260200160002060006101000a81548160ff0219169083151502179055506008600081548092919060010191905055505b50565b610bcc6117fa565b610bd46117fa565b6000429050600a60009054906101000a900473ffffffffffffffffffffffffffffffffffffffff1673ffffffffffffffffffffffffffffffffffffffff1663a324ad24826000604051602001526040518263ffffffff167c010000000000000000000000000000000000000000000000000000000002815260040180828152602001915050602060405180830381600087803b1515610c7257600080fd5b6102c65a03f11515610c8357600080fd5b50505060405180519050826000019060ff16908160ff1681525050600a60009054906101000a900473ffffffffffffffffffffffffffffffffffffffff1673ffffffffffffffffffffffffffffffffffffffff166392d66313826000604051602001526040518263ffffffff167c010000000000000000000000000000000000000000000000000000000002815260040180828152602001915050602060405180830381600087803b1515610d3757600080fd5b6102c65a03f11515610d4857600080fd5b50505060405180519050826020019061ffff16908161ffff1681525050819250505090565b600760009054906101000a900473ffffffffffffffffffffffffffffffffffffffff1673ffffffffffffffffffffffffffffffffffffffff163373ffffffffffffffffffffffffffffffffffffffff161415610e4c57600b60008273ffffffffffffffffffffffffffffffffffffffff1673ffffffffffffffffffffffffffffffffffffffff16815260200190815260200160002060009054906101000a900460ff161515610e1b57600080fd5b610e4a600760009054906101000a900473ffffffffffffffffffffffffffffffffffffffff1682600954610680565b505b50565b600080600260003373ffffffffffffffffffffffffffffffffffffffff1673ffffffffffffffffffffffffffffffffffffffff16815260200190815260200160002060008573ffffffffffffffffffffffffffffffffffffffff1673ffffffffffffffffffffffffffffffffffffffff16815260200190815260200160002054905080831115610f60576000600260003373ffffffffffffffffffffffffffffffffffffffff1673ffffffffffffffffffffffffffffffffffffffff16815260200190815260200160002060008673ffffffffffffffffffffffffffffffffffffffff1673ffffffffffffffffffffffffffffffffffffffff16815260200190815260200160002081905550610ff4565b610f7383826117c390919063ffffffff16565b600260003373ffffffffffffffffffffffffffffffffffffffff1673ffffffffffffffffffffffffffffffffffffffff16815260200190815260200160002060008673ffffffffffffffffffffffffffffffffffffffff1673ffffffffffffffffffffffffffffffffffffffff168152602001908152602001600020819055505b8373ffffffffffffffffffffffffffffffffffffffff163373ffffffffffffffffffffffffffffffffffffffff167f8c5be1e5ebec7d5bd14f71427d1e84f3dd0314c0f7b2291e5b200ac8c7c3b925600260003373ffffffffffffffffffffffffffffffffffffffff1673ffffffffffffffffffffffffffffffffffffffff16815260200190815260200160002060008873ffffffffffffffffffffffffffffffffffffffff1673ffffffffffffffffffffffffffffffffffffffff168152602001908152602001600020546040518082815260200191505060405180910390a3600191505092915050565b6000600b60008373ffffffffffffffffffffffffffffffffffffffff1673ffffffffffffffffffffffffffffffffffffffff16815260200190815260200160002060009054906101000a900460ff169050919050565b60008060008373ffffffffffffffffffffffffffffffffffffffff1673ffffffffffffffffffffffffffffffffffffffff168152602001908152602001600020549050919050565b600760009054906101000a900473ffffffffffffffffffffffffffffffffffffffff1673ffffffffffffffffffffffffffffffffffffffff163373ffffffffffffffffffffffffffffffffffffffff1614156111dc57806009819055505b50565b600760009054906101000a900473ffffffffffffffffffffffffffffffffffffffff1673ffffffffffffffffffffffffffffffffffffffff163373ffffffffffffffffffffffffffffffffffffffff1614156112a1576000600b60008373ffffffffffffffffffffffffffffffffffffffff1673ffffffffffffffffffffffffffffffffffffffff16815260200190815260200160002060006101000a81548160ff021916908315150217905550600860008154809291906001900391905055505b50565b6000600854905090565b60008073ffffffffffffffffffffffffffffffffffffffff168373ffffffffffffffffffffffffffffffffffffffff16141515156112eb57600080fd5b6000803373ffffffffffffffffffffffffffffffffffffffff1673ffffffffffffffffffffffffffffffffffffffff16815260200190815260200160002054821115151561133857600080fd5b611389826000803373ffffffffffffffffffffffffffffffffffffffff1673ffffffffffffffffffffffffffffffffffffffff168152602001908152602001600020546117c390919063ffffffff16565b6000803373ffffffffffffffffffffffffffffffffffffffff1673ffffffffffffffffffffffffffffffffffffffff1681526020019081526020016000208190555061141c826000808673ffffffffffffffffffffffffffffffffffffffff1673ffffffffffffffffffffffffffffffffffffffff168152602001908152602001600020546117dc90919063ffffffff16565b6000808573ffffffffffffffffffffffffffffffffffffffff1673ffffffffffffffffffffffffffffffffffffffff168152602001908152602001600020819055508273ffffffffffffffffffffffffffffffffffffffff163373ffffffffffffffffffffffffffffffffffffffff167fddf252ad1be2c89b69c2b068fc378daa952ba7f163c4a11628f55a4df523b3ef846040518082815260200191505060405180910390a36001905092915050565b6000600760009054906101000a900473ffffffffffffffffffffffffffffffffffffffff1673ffffffffffffffffffffffffffffffffffffffff163373ffffffffffffffffffffffffffffffffffffffff16141561153b578160016000828254019250508190555060015490505b919050565b60006115d182600260003373ffffffffffffffffffffffffffffffffffffffff1673ffffffffffffffffffffffffffffffffffffffff16815260200190815260200160002060008673ffffffffffffffffffffffffffffffffffffffff1673ffffffffffffffffffffffffffffffffffffffff168152602001908152602001600020546117dc90919063ffffffff16565b600260003373ffffffffffffffffffffffffffffffffffffffff1673ffffffffffffffffffffffffffffffffffffffff16815260200190815260200160002060008573ffffffffffffffffffffffffffffffffffffffff1673ffffffffffffffffffffffffffffffffffffffff168152602001908152602001600020819055508273ffffffffffffffffffffffffffffffffffffffff163373ffffffffffffffffffffffffffffffffffffffff167f8c5be1e5ebec7d5bd14f71427d1e84f3dd0314c0f7b2291e5b200ac8c7c3b925600260003373ffffffffffffffffffffffffffffffffffffffff1673ffffffffffffffffffffffffffffffffffffffff16815260200190815260200160002060008773ffffffffffffffffffffffffffffffffffffffff1673ffffffffffffffffffffffffffffffffffffffff168152602001908152602001600020546040518082815260200191505060405180910390a36001905092915050565b6000600260008473ffffffffffffffffffffffffffffffffffffffff1673ffffffffffffffffffffffffffffffffffffffff16815260200190815260200160002060008373ffffffffffffffffffffffffffffffffffffffff1673ffffffffffffffffffffffffffffffffffffffff16815260200190815260200160002054905092915050565b60008282111515156117d157fe5b818303905092915050565b60008082840190508381101515156117f057fe5b8091505092915050565b6040805190810160405280600060ff168152602001600061ffff16815250905600a165627a7a72305820a4e9358a7eea9f646fe2d50ccc27bbc258e0871643a0348eaebe789f8d24a5fb00296060604052341561000f57600080fd5b610d078061001e6000396000f3006060604052600436106100d0576000357c0100000000000000000000000000000000000000000000000000000000900463ffffffff1680633e239e1a146100d55780634ac1ad781461011257806362ba96871461014f57806365c72840146101ba5780637f791833146101f75780638aa001fc146102565780638c8d98a0146102935780639054bdec146102e657806392d663131461035d578063a324ad241461039c578063a6f0e577146103d9578063b199993714610418578063b238ad0e1461044f578063fa93f8831461049c575b600080fd5b34156100e057600080fd5b6100f660048080359060200190919050506104d9565b604051808260ff1660ff16815260200191505060405180910390f35b341561011d57600080fd5b6101336004808035906020019091905050610506565b604051808260ff1660ff16815260200191505060405180910390f35b341561015a57600080fd5b6101a4600480803561ffff1690602001909190803560ff1690602001909190803560ff1690602001909190803560ff1690602001909190803560ff1690602001909190505061052d565b6040518082815260200191505060405180910390f35b34156101c557600080fd5b6101db6004808035906020019091905050610549565b604051808260ff1660ff16815260200191505060405180910390f35b341561020257600080fd5b610240600480803561ffff1690602001909190803560ff1690602001909190803560ff1690602001909190803560ff1690602001909190505061055f565b6040518082815260200191505060405180910390f35b341561026157600080fd5b610277600480803590602001909190505061057a565b604051808260ff1660ff16815260200191505060405180910390f35b341561029e57600080fd5b6102d0600480803561ffff1690602001909190803560ff1690602001909190803560ff16906020019091905050610590565b6040518082815260200191505060405180910390f35b34156102f157600080fd5b610347600480803561ffff1690602001909190803560ff1690602001909190803560ff1690602001909190803560ff1690602001909190803560ff1690602001909190803560ff169060200190919050506105ab565b6040518082815260200191505060405180910390f35b341561036857600080fd5b61037e6004808035906020019091905050610852565b604051808261ffff1661ffff16815260200191505060405180910390f35b34156103a757600080fd5b6103bd60048080359060200190919050506108fd565b604051808260ff1660ff16815260200191505060405180910390f35b34156103e457600080fd5b6103fe600480803561ffff16906020019091905050610913565b604051808215151515815260200191505060405180910390f35b341561042357600080fd5b6104396004808035906020019091905050610994565b6040518082815260200191505060405180910390f35b341561045a57600080fd5b610480600480803560ff1690602001909190803561ffff169060200190919050506109cd565b604051808260ff1660ff16815260200191505060405180910390f35b34156104a757600080fd5b6104bd6004808035906020019091905050610a99565b604051808260ff1660ff16815260200191505060405180910390f35b60006018603c80848115156104ea57fe5b048115156104f457fe5b048115156104fe57fe5b069050919050565b600060076004620151808481151561051a57fe5b040181151561052557fe5b069050919050565b600061053e868686868660006105ab565b905095945050505050565b600061055482610aba565b604001519050919050565b6000610570858585856000806105ab565b9050949350505050565b6000603c8281151561058857fe5b069050919050565b60006105a284848460008060006105ab565b90509392505050565b6000806105b6610c5b565b6107b291505b8861ffff168261ffff1610156105ff576105d582610913565b156105e8576301e28500830192506105f2565b6301e13380830192505b81806001019250506105bc565b601f816000600c8110151561061057fe5b602002019060ff16908160ff168152505061062a89610913565b1561065657601d816001600c8110151561064057fe5b602002019060ff16908160ff1681525050610679565b601c816001600c8110151561066757fe5b602002019060ff16908160ff16815250505b601f816002600c8110151561068a57fe5b602002019060ff16908160ff1681525050601e816003600c811015156106ac57fe5b602002019060ff16908160ff1681525050601f816004600c811015156106ce57fe5b602002019060ff16908160ff1681525050601e816005600c811015156106f057fe5b602002019060ff16908160ff1681525050601f816006600c8110151561071257fe5b602002019060ff16908160ff1681525050601f816007600c8110151561073457fe5b602002019060ff16908160ff1681525050601e816008600c8110151561075657fe5b602002019060ff16908160ff1681525050601f816009600c8110151561077857fe5b602002019060ff16908160ff1681525050601e81600a600c8110151561079a57fe5b602002019060ff16908160ff1681525050601f81600b600c811015156107bc57fe5b602002019060ff16908160ff1681525050600191505b8760ff168261ffff16101561081457806001830361ffff16600c811015156107f657fe5b602002015160ff1662015180028301925081806001019250506107d2565b6001870360ff166201518002830192508560ff16610e1002830192508460ff16603c02830192508360ff168301925082925050509695505050505050565b600080600080600092506301e133808581151561086b57fe5b046107b261ffff160191506108856107b261ffff16610994565b6108928361ffff16610994565b039050806301e285000283019250806107b2830361ffff16036301e1338002830192505b848311156108f2576108ca60018303610913565b156108dd576301e28500830392506108e7565b6301e13380830392505b6001820391506108b6565b819350505050919050565b600061090882610aba565b602001519050919050565b60008060048361ffff1681151561092657fe5b0661ffff1614151561093b576000905061098f565b600060648361ffff1681151561094d57fe5b0661ffff16141515610962576001905061098f565b60006101908361ffff1681151561097557fe5b0661ffff1614151561098a576000905061098f565b600190505b919050565b6000600182039150610190828115156109a957fe5b046064838115156109b657fe5b046004848115156109c357fe5b0403019050919050565b600060018360ff1614806109e4575060038360ff16145b806109f2575060058360ff16145b80610a00575060078360ff16145b80610a0e575060088360ff16145b80610a1c5750600a8360ff16145b80610a2a5750600c8360ff16145b15610a3857601f9050610a93565b60048360ff161480610a4d575060068360ff16145b80610a5b575060098360ff16145b80610a695750600b8360ff16145b15610a7757601e9050610a93565b610a8082610913565b15610a8e57601d9050610a93565b601c90505b92915050565b6000603c8083811515610aa857fe5b04811515610ab257fe5b069050919050565b610ac2610c87565b60008060008060009350610ad586610852565b856000019061ffff16908161ffff1681525050610af76107b261ffff16610994565b610b08866000015161ffff16610994565b039250826301e285000284019350826107b286600001510361ffff16036301e133800284019350600191505b600c8260ff16111515610b8c57610b4f8286600001516109cd565b60ff1662015180029050858482011115610b7a5781856020019060ff16908160ff1681525050610b8c565b80840193508180600101925050610b34565b600191505b610ba3856020015186600001516109cd565b60ff168260ff16111515610bea57858462015180011115610bd55781856040019060ff16908160ff1681525050610bea565b62015180840193508180600101925050610b91565b610bf3866104d9565b856060019060ff16908160ff1681525050610c0d86610a99565b856080019060ff16908160ff1681525050610c278661057a565b8560a0019060ff16908160ff1681525050610c4186610506565b8560c0019060ff16908160ff168152505050505050919050565b61018060405190810160405280600c905b600060ff16815260200190600190039081610c6c5790505090565b60e060405190810160405280600061ffff168152602001600060ff168152602001600060ff168152602001600060ff168152602001600060ff168152602001600060ff168152602001600060ff16815250905600a165627a7a72305820a50d7f6ebb05ebb877b57029e1490261e14cfc5b36db194383d6d853a397e6640029",
  "source": "pragma solidity ^0.4.17;\n\nimport \"zeppelin-solidity/contracts/token/ERC20/StandardToken.sol\";\nimport \"./DateTime.sol\";\nimport \"./DateTimeAPI.sol\";\n\ncontract H2ICO is StandardToken {\n\n    \n    struct Date {\n        uint8 month;\n        uint16 year;\n    }\n\n    string private name = \"H2ICO\";\n    string private symbol = \"kl\";\n    uint8 private decimals = 3;\n    uint private INITIAL_SUPPLY = 0;\n    address private owner;\n    uint private userCounter =0;\n    uint private userWaterLimit;\n    DateTime date = new DateTime();//on main network call actual contract\n    \n    mapping (address=>bool) validatingMap;\n    mapping (address => uint) lastPurchaseDate;\n    \n     modifier isOwner {\n        if (msg.sender == owner) {\n            _;\n        }\n    }\n\n    function H2ICO() public {\n        totalSupply_ = INITIAL_SUPPLY;\n        balances[msg.sender] = INITIAL_SUPPLY;\n        owner = msg.sender;\n        userWaterLimit = 0;\n    }\n\n    function increasedSupply (uint _amount) public isOwner returns(uint) {\n        \n        totalSupply_ += _amount;\n        return totalSupply_;\n\n    }\n\n    function setSupply (uint _amount) public isOwner {\n        balances[owner] = _amount;\n        totalSupply_ = _amount;\n        \n    }\n    function setUserWaterLimit(uint _limit) public isOwner {\n        userWaterLimit = _limit;\n    }\n\n    function addUser(address _user)  public isOwner {\n        \n        validatingMap[_user] = true;\n        userCounter++;\n    }\n    function getTotalUsers() public constant returns (uint) {\n        return userCounter;  \n    }\n    function withdraw(address _user) public isOwner {\n        require(validatingMap[_user]);\n        transferFrom(owner, _user, userWaterLimit);\n\n    }\n   \n    function containsUser(address _user) public view returns(bool) {\n        return validatingMap[_user];\n        \n    }\n    function removeUser(address _user)public isOwner {\n        validatingMap[_user] = false;\n        userCounter--;\n    }\n\n    function getDate() public view returns(Date) {\n        Date memory rtrDate;\n        uint timeStamp = now;\n        rtrDate.month = date.getMonth(timeStamp);\n        rtrDate.year = date.getYear(timeStamp);\n        return rtrDate;\n    }\n\n}",
  "sourcePath": "/home/smledw002/unlock/UnlockTheBlock/oz-workspace/contracts/H2ICO.sol",
  "compiler": {
    "name": "solc",
    "version": "0.4.18+commit.9cf6e910.Emscripten.clang"
  },
  "schemaVersion": "1.0.1",
  "updatedAt": "2018-01-30T08:56:34.848Z"
}