{
  "contractName": "TokenSellerFactory",
  "abi": [
    {
      "constant": true,
      "inputs": [],
      "name": "TOKEN_ADDRESS",
      "outputs": [
        {
          "name": "",
          "type": "address"
        }
      ],
      "payable": false,
      "stateMutability": "view",
      "type": "function"
    },
    {
      "constant": false,
      "inputs": [
        {
          "name": "sellPrice",
          "type": "uint256"
        },
        {
          "name": "units",
          "type": "uint256"
        },
        {
          "name": "sellsTokens",
          "type": "bool"
        }
      ],
      "name": "createSaleContract",
      "outputs": [
        {
          "name": "seller",
          "type": "address"
        }
      ],
      "payable": false,
      "stateMutability": "nonpayable",
      "type": "function"
    },
    {
      "constant": false,
      "inputs": [
        {
          "name": "tokenAddress",
          "type": "address"
        },
        {
          "name": "tokens",
          "type": "uint256"
        }
      ],
      "name": "ownerWithdrawERC20Token",
      "outputs": [
        {
          "name": "ok",
          "type": "bool"
        }
      ],
      "payable": false,
      "stateMutability": "nonpayable",
      "type": "function"
    },
    {
      "constant": true,
      "inputs": [
        {
          "name": "tradeContract",
          "type": "address"
        }
      ],
      "name": "verify",
      "outputs": [
        {
          "name": "valid",
          "type": "bool"
        },
        {
          "name": "owner",
          "type": "address"
        },
        {
          "name": "asset",
          "type": "address"
        },
        {
          "name": "sellPrice",
          "type": "uint256"
        },
        {
          "name": "units",
          "type": "uint256"
        },
        {
          "name": "sellsTokens",
          "type": "bool"
        }
      ],
      "payable": false,
      "stateMutability": "view",
      "type": "function"
    },
    {
      "constant": true,
      "inputs": [],
      "name": "owner",
      "outputs": [
        {
          "name": "",
          "type": "address"
        }
      ],
      "payable": false,
      "stateMutability": "view",
      "type": "function"
    },
    {
      "constant": false,
      "inputs": [
        {
          "name": "newOwner",
          "type": "address"
        }
      ],
      "name": "transferOwnership",
      "outputs": [],
      "payable": false,
      "stateMutability": "nonpayable",
      "type": "function"
    },
    {
      "inputs": [
        {
          "name": "_tokenAddress",
          "type": "address"
        }
      ],
      "payable": false,
      "stateMutability": "nonpayable",
      "type": "constructor"
    },
    {
      "payable": false,
      "stateMutability": "nonpayable",
      "type": "fallback"
    },
    {
      "anonymous": false,
      "inputs": [
        {
          "indexed": true,
          "name": "ownerAddress",
          "type": "address"
        },
        {
          "indexed": true,
          "name": "tokenSellerAddress",
          "type": "address"
        },
        {
          "indexed": true,
          "name": "asset",
          "type": "address"
        },
        {
          "indexed": false,
          "name": "sellPrice",
          "type": "uint256"
        },
        {
          "indexed": false,
          "name": "units",
          "type": "uint256"
        },
        {
          "indexed": false,
          "name": "sellsTokens",
          "type": "bool"
        }
      ],
      "name": "TradeListing",
      "type": "event"
    },
    {
      "anonymous": false,
      "inputs": [
        {
          "indexed": true,
          "name": "tokenAddress",
          "type": "address"
        },
        {
          "indexed": false,
          "name": "tokens",
          "type": "uint256"
        }
      ],
      "name": "OwnerWithdrewERC20Token",
      "type": "event"
    },
    {
      "anonymous": false,
      "inputs": [
        {
          "indexed": true,
          "name": "previousOwner",
          "type": "address"
        },
        {
          "indexed": true,
          "name": "newOwner",
          "type": "address"
        }
      ],
      "name": "OwnershipTransferred",
      "type": "event"
    }
  ],
  "bytecode": "0x6060604052341561000f57600080fd5b604051602080611bfa83398101604052808051906020019091905050336000806101000a81548173ffffffffffffffffffffffffffffffffffffffff021916908373ffffffffffffffffffffffffffffffffffffffff16021790555060008173ffffffffffffffffffffffffffffffffffffffff161415151561009157600080fd5b80600160006101000a81548173ffffffffffffffffffffffffffffffffffffffff021916908373ffffffffffffffffffffffffffffffffffffffff16021790555050611b18806100e26000396000f300606060405260043610610078576000357c0100000000000000000000000000000000000000000000000000000000900463ffffffff1680630bdf5300146100885780635917b5a8146100dd5780635de014971461015457806363a9c3d7146101ae5780638da5cb5b1461027e578063f2fde38b146102d3575b341561008357600080fd5b600080fd5b341561009357600080fd5b61009b61030c565b604051808273ffffffffffffffffffffffffffffffffffffffff1673ffffffffffffffffffffffffffffffffffffffff16815260200191505060405180910390f35b34156100e857600080fd5b61011260048080359060200190919080359060200190919080351515906020019091905050610332565b604051808273ffffffffffffffffffffffffffffffffffffffff1673ffffffffffffffffffffffffffffffffffffffff16815260200191505060405180910390f35b341561015f57600080fd5b610194600480803573ffffffffffffffffffffffffffffffffffffffff169060200190919080359060200190919050506105a7565b604051808215151515815260200191505060405180910390f35b34156101b957600080fd5b6101e5600480803573ffffffffffffffffffffffffffffffffffffffff16906020019091905050610741565b60405180871515151581526020018673ffffffffffffffffffffffffffffffffffffffff1673ffffffffffffffffffffffffffffffffffffffff1681526020018573ffffffffffffffffffffffffffffffffffffffff1673ffffffffffffffffffffffffffffffffffffffff16815260200184815260200183815260200182151515158152602001965050505050505060405180910390f35b341561028957600080fd5b610291610a5c565b604051808273ffffffffffffffffffffffffffffffffffffffff1673ffffffffffffffffffffffffffffffffffffffff16815260200191505060405180910390f35b34156102de57600080fd5b61030a600480803573ffffffffffffffffffffffffffffffffffffffff16906020019091905050610a81565b005b600160009054906101000a900473ffffffffffffffffffffffffffffffffffffffff1681565b600080841015151561034357600080fd5b6000831015151561035357600080fd5b600160009054906101000a900473ffffffffffffffffffffffffffffffffffffffff16848484610381610bd6565b808573ffffffffffffffffffffffffffffffffffffffff1673ffffffffffffffffffffffffffffffffffffffff16815260200184815260200183815260200182151515158152602001945050505050604051809103906000f08015156103e657600080fd5b90506001600260008373ffffffffffffffffffffffffffffffffffffffff1673ffffffffffffffffffffffffffffffffffffffff16815260200190815260200160002060006101000a81548160ff0219169083151502179055508073ffffffffffffffffffffffffffffffffffffffff1663f2fde38b336040518263ffffffff167c0100000000000000000000000000000000000000000000000000000000028152600401808273ffffffffffffffffffffffffffffffffffffffff1673ffffffffffffffffffffffffffffffffffffffff168152602001915050600060405180830381600087803b15156104da57600080fd5b6102c65a03f115156104eb57600080fd5b505050600160009054906101000a900473ffffffffffffffffffffffffffffffffffffffff1673ffffffffffffffffffffffffffffffffffffffff168173ffffffffffffffffffffffffffffffffffffffff163373ffffffffffffffffffffffffffffffffffffffff167f95883871899e33394289953f74bb83c1b73d35af75cbff5548be3a0d6c52b3b58787876040518084815260200183815260200182151515158152602001935050505060405180910390a49392505050565b60008060009054906101000a900473ffffffffffffffffffffffffffffffffffffffff1673ffffffffffffffffffffffffffffffffffffffff163373ffffffffffffffffffffffffffffffffffffffff1614151561060457600080fd5b8273ffffffffffffffffffffffffffffffffffffffff167f168656e1968a1165ef7fd3f1006847fcfba4cac97672bc70ccbcffb66bc080ba836040518082815260200191505060405180910390a28273ffffffffffffffffffffffffffffffffffffffff1663a9059cbb6000809054906101000a900473ffffffffffffffffffffffffffffffffffffffff16846000604051602001526040518363ffffffff167c0100000000000000000000000000000000000000000000000000000000028152600401808373ffffffffffffffffffffffffffffffffffffffff1673ffffffffffffffffffffffffffffffffffffffff16815260200182815260200192505050602060405180830381600087803b151561071e57600080fd5b6102c65a03f1151561072f57600080fd5b50505060405180519050905092915050565b6000806000806000806000600260008973ffffffffffffffffffffffffffffffffffffffff1673ffffffffffffffffffffffffffffffffffffffff16815260200190815260200160002060009054906101000a900460ff1696508615610a52578790508073ffffffffffffffffffffffffffffffffffffffff16638da5cb5b6000604051602001526040518163ffffffff167c0100000000000000000000000000000000000000000000000000000000028152600401602060405180830381600087803b151561081057600080fd5b6102c65a03f1151561082157600080fd5b5050506040518051905095508073ffffffffffffffffffffffffffffffffffffffff166338d52e0f6000604051602001526040518163ffffffff167c0100000000000000000000000000000000000000000000000000000000028152600401602060405180830381600087803b151561089957600080fd5b6102c65a03f115156108aa57600080fd5b5050506040518051905094508073ffffffffffffffffffffffffffffffffffffffff16634b7503346000604051602001526040518163ffffffff167c0100000000000000000000000000000000000000000000000000000000028152600401602060405180830381600087803b151561092257600080fd5b6102c65a03f1151561093357600080fd5b5050506040518051905093508073ffffffffffffffffffffffffffffffffffffffff1663976a84356000604051602001526040518163ffffffff167c0100000000000000000000000000000000000000000000000000000000028152600401602060405180830381600087803b15156109ab57600080fd5b6102c65a03f115156109bc57600080fd5b5050506040518051905092508073ffffffffffffffffffffffffffffffffffffffff16634ca50f596000604051602001526040518163ffffffff167c0100000000000000000000000000000000000000000000000000000000028152600401602060405180830381600087803b1515610a3457600080fd5b6102c65a03f11515610a4557600080fd5b5050506040518051905091505b5091939550919395565b6000809054906101000a900473ffffffffffffffffffffffffffffffffffffffff1681565b6000809054906101000a900473ffffffffffffffffffffffffffffffffffffffff1673ffffffffffffffffffffffffffffffffffffffff163373ffffffffffffffffffffffffffffffffffffffff16141515610adc57600080fd5b600073ffffffffffffffffffffffffffffffffffffffff168173ffffffffffffffffffffffffffffffffffffffff1614151515610b1857600080fd5b8073ffffffffffffffffffffffffffffffffffffffff166000809054906101000a900473ffffffffffffffffffffffffffffffffffffffff1673ffffffffffffffffffffffffffffffffffffffff167f8be0079c531659141344cd1fd0a4f28419497f9722a3daafe3b4186f6b6457e060405160405180910390a3806000806101000a81548173ffffffffffffffffffffffffffffffffffffffff021916908373ffffffffffffffffffffffffffffffffffffffff16021790555050565b604051610f0680610be78339019056006060604052341561000f57600080fd5b604051608080610f0683398101604052808051906020019091908051906020019091908051906020019091908051906020019091905050336000806101000a81548173ffffffffffffffffffffffffffffffffffffffff021916908373ffffffffffffffffffffffffffffffffffffffff16021790555083600160006101000a81548173ffffffffffffffffffffffffffffffffffffffff021916908373ffffffffffffffffffffffffffffffffffffffff160217905550826002819055508160038190555080600460006101000a81548160ff0219169083151502179055507fce78b7525a161aee9986871a8dcad7e2783f9a4d66383783243cf14ec7086f85600460009054906101000a900460ff16604051808215151515815260200191505060405180910390a150505050610dba8061014c6000396000f3006060604052600436106100af576000357c0100000000000000000000000000000000000000000000000000000000900463ffffffff1680632170ebf7146100b157806338d52e0f146100ec5780634b750334146101415780634ca50f591461016a5780638da5cb5b14610197578063976a8435146101ec578063c34764cf14610215578063c60ccb0e1461026f578063cd53a3b714610279578063ce5e84a3146102b4578063f2fde38b146102d9575b005b34156100bc57600080fd5b6100d26004808035906020019091905050610697565b604051808215151515815260200191505060405180910390f35b34156100f757600080fd5b6100ff6107b2565b604051808273ffffffffffffffffffffffffffffffffffffffff1673ffffffffffffffffffffffffffffffffffffffff16815260200191505060405180910390f35b341561014c57600080fd5b6101546107d8565b6040518082815260200191505060405180910390f35b341561017557600080fd5b61017d6107de565b604051808215151515815260200191505060405180910390f35b34156101a257600080fd5b6101aa6107f1565b604051808273ffffffffffffffffffffffffffffffffffffffff1673ffffffffffffffffffffffffffffffffffffffff16815260200191505060405180910390f35b34156101f757600080fd5b6101ff610816565b6040518082815260200191505060405180910390f35b341561022057600080fd5b610255600480803573ffffffffffffffffffffffffffffffffffffffff1690602001909190803590602001909190505061081c565b604051808215151515815260200191505060405180910390f35b610277610312565b005b341561028457600080fd5b61029a60048080359060200190919050506109d3565b604051808215151515815260200191505060405180910390f35b34156102bf57600080fd5b6102d760048080351515906020019091905050610b77565b005b34156102e457600080fd5b610310600480803573ffffffffffffffffffffffffffffffffffffffff16906020019091905050610c39565b005b6000806000600460009054906101000a900460ff168061037e57506000809054906101000a900473ffffffffffffffffffffffffffffffffffffffff1673ffffffffffffffffffffffffffffffffffffffff163373ffffffffffffffffffffffffffffffffffffffff16145b15610651576002543481151561039057fe5b049250600354600160009054906101000a900473ffffffffffffffffffffffffffffffffffffffff1673ffffffffffffffffffffffffffffffffffffffff166370a08231306000604051602001526040518263ffffffff167c0100000000000000000000000000000000000000000000000000000000028152600401808273ffffffffffffffffffffffffffffffffffffffff1673ffffffffffffffffffffffffffffffffffffffff168152602001915050602060405180830381600087803b151561045b57600080fd5b6102c65a03f1151561046c57600080fd5b5050506040518051905081151561047f57fe5b04915060009050600254820234111561049f576002548202340390508192505b60008111156104e9573373ffffffffffffffffffffffffffffffffffffffff166108fc829081150290604051600060405180830381858888f1935050505015156104e857600080fd5b5b60008311156105ea57600160009054906101000a900473ffffffffffffffffffffffffffffffffffffffff1673ffffffffffffffffffffffffffffffffffffffff1663a9059cbb3360035486026000604051602001526040518363ffffffff167c0100000000000000000000000000000000000000000000000000000000028152600401808373ffffffffffffffffffffffffffffffffffffffff1673ffffffffffffffffffffffffffffffffffffffff16815260200182815260200192505050602060405180830381600087803b15156105c357600080fd5b6102c65a03f115156105d457600080fd5b5050506040518051905015156105e957600080fd5b5b3373ffffffffffffffffffffffffffffffffffffffff167f37e948531341be0a8ce95c3833827c6f3559825cb6421e6ff1fe21c3a8b712173483600354870260405180848152602001838152602001828152602001935050505060405180910390a2610692565b3373ffffffffffffffffffffffffffffffffffffffff166108fc349081150290604051600060405180830381858888f19350505050151561069157600080fd5b5b505050565b60008060009054906101000a900473ffffffffffffffffffffffffffffffffffffffff1673ffffffffffffffffffffffffffffffffffffffff163373ffffffffffffffffffffffffffffffffffffffff161415156106f457600080fd5b813073ffffffffffffffffffffffffffffffffffffffff16311015156107a8577f8a93d70d792b644d97d7da8a5798e03bbee85be4537a860a331dbe3ee50eb982826040518082815260200191505060405180910390a16000809054906101000a900473ffffffffffffffffffffffffffffffffffffffff1673ffffffffffffffffffffffffffffffffffffffff166108fc839081150290604051600060405180830381858888f1935050505090506107ad565b600090505b919050565b600160009054906101000a900473ffffffffffffffffffffffffffffffffffffffff1681565b60025481565b600460009054906101000a900460ff1681565b6000809054906101000a900473ffffffffffffffffffffffffffffffffffffffff1681565b60035481565b60008060009054906101000a900473ffffffffffffffffffffffffffffffffffffffff1673ffffffffffffffffffffffffffffffffffffffff163373ffffffffffffffffffffffffffffffffffffffff1614151561087957600080fd5b7ffea8ae97829f3801e6ca15928428931c2a4f3cee1fa7c9b83d959efd246664228383604051808373ffffffffffffffffffffffffffffffffffffffff1673ffffffffffffffffffffffffffffffffffffffff1681526020018281526020019250505060405180910390a18273ffffffffffffffffffffffffffffffffffffffff1663a9059cbb6000809054906101000a900473ffffffffffffffffffffffffffffffffffffffff16846000604051602001526040518363ffffffff167c0100000000000000000000000000000000000000000000000000000000028152600401808373ffffffffffffffffffffffffffffffffffffffff1673ffffffffffffffffffffffffffffffffffffffff16815260200182815260200192505050602060405180830381600087803b15156109b057600080fd5b6102c65a03f115156109c157600080fd5b50505060405180519050905092915050565b60008060009054906101000a900473ffffffffffffffffffffffffffffffffffffffff1673ffffffffffffffffffffffffffffffffffffffff163373ffffffffffffffffffffffffffffffffffffffff16141515610a3057600080fd5b7f1ebbc515a759c3fe8e048867aac7fe458e3a37ac3dd44ffc73a6238cf3003981826040518082815260200191505060405180910390a1600160009054906101000a900473ffffffffffffffffffffffffffffffffffffffff1673ffffffffffffffffffffffffffffffffffffffff1663a9059cbb6000809054906101000a900473ffffffffffffffffffffffffffffffffffffffff16846000604051602001526040518363ffffffff167c0100000000000000000000000000000000000000000000000000000000028152600401808373ffffffffffffffffffffffffffffffffffffffff1673ffffffffffffffffffffffffffffffffffffffff16815260200182815260200192505050602060405180830381600087803b1515610b5557600080fd5b6102c65a03f11515610b6657600080fd5b505050604051805190509050919050565b6000809054906101000a900473ffffffffffffffffffffffffffffffffffffffff1673ffffffffffffffffffffffffffffffffffffffff163373ffffffffffffffffffffffffffffffffffffffff16141515610bd257600080fd5b80600460006101000a81548160ff0219169083151502179055507fce78b7525a161aee9986871a8dcad7e2783f9a4d66383783243cf14ec7086f85600460009054906101000a900460ff16604051808215151515815260200191505060405180910390a150565b6000809054906101000a900473ffffffffffffffffffffffffffffffffffffffff1673ffffffffffffffffffffffffffffffffffffffff163373ffffffffffffffffffffffffffffffffffffffff16141515610c9457600080fd5b600073ffffffffffffffffffffffffffffffffffffffff168173ffffffffffffffffffffffffffffffffffffffff1614151515610cd057600080fd5b8073ffffffffffffffffffffffffffffffffffffffff166000809054906101000a900473ffffffffffffffffffffffffffffffffffffffff1673ffffffffffffffffffffffffffffffffffffffff167f8be0079c531659141344cd1fd0a4f28419497f9722a3daafe3b4186f6b6457e060405160405180910390a3806000806101000a81548173ffffffffffffffffffffffffffffffffffffffff021916908373ffffffffffffffffffffffffffffffffffffffff160217905550505600a165627a7a72305820e7b26090c2f6537722d8a676e161204a06f343970f0b721cc8415852ef1509300029a165627a7a72305820c7070a661307085868213785dc3ba8bf1e59b4c326b9bb0cea8183903ef54a000029",
  "source": "pragma solidity ^0.4.18;\n\n//import \"../node_modules/zeppelin-solidity/contracts/ownership/Ownable.sol\";\n//import \"zeppelin-solidity/contracts/token/ERC20/StandardToken.sol\";\nimport \"./TokenSeller.sol\";\n//import \"./H2ICO.sol\";\n\n/**\n * TO DO: Fix interface to include inherited contracts to remove compile error for modified functions \n */\n\n//  contract TokenSellerInterface {\n//      function TokenSeller(address _asset, uint _sellPrice, uint _units , bool _sellsTokens);\n//      function activate(bool _sellsTokens) public onlyOwner;      //error with functions having modifiers\n//      function makerWithdrawAsset(uint tokens) public onlyOwner returns (bool confirm);\n//      function makerWithdrawERC20Token(address tokenAddress, uint amount) public onlyOwner returns (bool confirm);\n//      function makerWithdrawEther(uint amount) public onlyOwner returns (bool confirm);\n//  }\n\n\ncontract TokenSellerFactory is Ownable {\n\n    event TradeListing(address indexed ownerAddress, address indexed tokenSellerAddress,address indexed asset, uint256 sellPrice, uint256 units, bool sellsTokens);\n    event OwnerWithdrewERC20Token(address indexed tokenAddress, uint256 tokens);\n    address public TOKEN_ADDRESS;\n    mapping (address => bool) _verify;      //mapping to verify address has a smart contract made by factory\n    \n    /** @dev Constructor method\n     *  @param _tokenAddress address Address of the token to be generated for contracts \n     */\n    function TokenSellerFactory(address _tokenAddress) public {\n        require(_tokenAddress != 0x0);\n        TOKEN_ADDRESS = _tokenAddress;\n    }\n    /** Verify Token Seller Contracts\n     * Function is called to verify the parameters of a deployed TokenSeller contract\n     * @param tradeContract address of contract to be verified\n     *\n     * @return  valid        did this TokenTraderFactory create the TokenTrader contract?\n     * @return  owner        is the owner of the TokenTrader contract\n     * @return  asset        is the ERC20 asset address\n     * @return  sellPrice    is the sell price in ethers per `units` of asset tokens\n     * @return  units        is the number of units of asset tokens\n     * @return  sellsTokens  is the TokenTrader contract selling tokens? \n     */\n    function verify(address tradeContract) public view returns (bool valid, address owner, address asset, uint sellPrice, uint units, bool sellsTokens) {\n        valid = _verify[tradeContract];\n        if (valid) {\n            TokenSeller t = TokenSeller(tradeContract);\n            owner = t.owner();\n            asset = t.asset();\n            sellPrice = t.sellPrice();\n            units = t.units();\n            sellsTokens = t.sellsTokens();\n        }\n    }\n\n    /** Create TokenSeller contract\n     * Generates seller smart contracts for use of token sell orders.\n     * For example, listing a TokenSeller contract on the network where the \n     * contract will sell H20 tokens at a rate of 170/100000 = 0.0017 ETH per H20 token:\n     *    token address   0xa74476443119a942de498590fe1f2454d7d4ac0d\n     *    sellPrice       170\n     *    units           100000\n     *    sellsTokens     true\n     * @param sellPrice price of lot for sale\n     * @param units size of a lot\n     * @param sellsTokens check if the contract has permission to sell\n     */\n    function createSaleContract(uint sellPrice, uint units, bool sellsTokens) public returns (address seller) {\n        require(sellPrice >= 0);\n        require(units >= 0);\n        seller = new TokenSeller(TOKEN_ADDRESS, sellPrice, units, sellsTokens);\n        _verify[seller] = true;\n        TokenSeller(seller).transferOwnership(msg.sender);\n        TradeListing(msg.sender, seller, TOKEN_ADDRESS, sellPrice, units, sellsTokens);\n    }\n\n    /** Withdraw any ECR20 token from factory \n     * MAinly used for erroneuos transaction sent to the factory\n     *\n     */\n    function ownerWithdrawERC20Token(address tokenAddress, uint256 tokens) public onlyOwner returns (bool ok) {\n        OwnerWithdrewERC20Token(tokenAddress, tokens);\n        return StandardToken(tokenAddress).transfer(owner, tokens);\n    }\n\n\n    function () public {\n        revert();\n    }\n}\n\n",
  "sourcePath": "/home/shaheen/finalhackathon/UnlockTheBlock/oz-workspace/contracts/TokenSellerFactory.sol",
  "compiler": {
    "name": "solc",
    "version": "0.4.18+commit.9cf6e910.Emscripten.clang"
  },
  "schemaVersion": "1.0.1",
  "updatedAt": "2018-01-31T16:24:47.757Z"
}