{
  "contractName": "TokenSeller",
  "abi": [
    {
      "constant": false,
      "inputs": [
        {
          "name": "amount",
          "type": "uint256"
        }
      ],
      "name": "makerWithdrawEther",
      "outputs": [
        {
          "name": "confirm",
          "type": "bool"
        }
      ],
      "payable": false,
      "stateMutability": "nonpayable",
      "type": "function"
    },
    {
      "constant": true,
      "inputs": [],
      "name": "asset",
      "outputs": [
        {
          "name": "",
          "type": "address"
        }
      ],
      "payable": false,
      "stateMutability": "view",
      "type": "function"
    },
    {
      "constant": true,
      "inputs": [],
      "name": "sellPrice",
      "outputs": [
        {
          "name": "",
          "type": "uint256"
        }
      ],
      "payable": false,
      "stateMutability": "view",
      "type": "function"
    },
    {
      "constant": true,
      "inputs": [],
      "name": "sellsTokens",
      "outputs": [
        {
          "name": "",
          "type": "bool"
        }
      ],
      "payable": false,
      "stateMutability": "view",
      "type": "function"
    },
    {
      "constant": true,
      "inputs": [],
      "name": "owner",
      "outputs": [
        {
          "name": "",
          "type": "address"
        }
      ],
      "payable": false,
      "stateMutability": "view",
      "type": "function"
    },
    {
      "constant": true,
      "inputs": [],
      "name": "units",
      "outputs": [
        {
          "name": "",
          "type": "uint256"
        }
      ],
      "payable": false,
      "stateMutability": "view",
      "type": "function"
    },
    {
      "constant": false,
      "inputs": [
        {
          "name": "tokenAddress",
          "type": "address"
        },
        {
          "name": "amount",
          "type": "uint256"
        }
      ],
      "name": "makerWithdrawERC20Token",
      "outputs": [
        {
          "name": "confirm",
          "type": "bool"
        }
      ],
      "payable": false,
      "stateMutability": "nonpayable",
      "type": "function"
    },
    {
      "constant": false,
      "inputs": [],
      "name": "takerBuyAsset",
      "outputs": [],
      "payable": true,
      "stateMutability": "payable",
      "type": "function"
    },
    {
      "constant": false,
      "inputs": [
        {
          "name": "tokens",
          "type": "uint256"
        }
      ],
      "name": "makerWithdrawAsset",
      "outputs": [
        {
          "name": "confirm",
          "type": "bool"
        }
      ],
      "payable": false,
      "stateMutability": "nonpayable",
      "type": "function"
    },
    {
      "constant": false,
      "inputs": [
        {
          "name": "_sellsTokens",
          "type": "bool"
        }
      ],
      "name": "activate",
      "outputs": [],
      "payable": false,
      "stateMutability": "nonpayable",
      "type": "function"
    },
    {
      "constant": false,
      "inputs": [
        {
          "name": "newOwner",
          "type": "address"
        }
      ],
      "name": "transferOwnership",
      "outputs": [],
      "payable": false,
      "stateMutability": "nonpayable",
      "type": "function"
    },
    {
      "inputs": [
        {
          "name": "_asset",
          "type": "address"
        },
        {
          "name": "_sellPrice",
          "type": "uint256"
        },
        {
          "name": "_units",
          "type": "uint256"
        },
        {
          "name": "_sellsTokens",
          "type": "bool"
        }
      ],
      "payable": false,
      "stateMutability": "nonpayable",
      "type": "constructor"
    },
    {
      "payable": true,
      "stateMutability": "payable",
      "type": "fallback"
    },
    {
      "anonymous": false,
      "inputs": [
        {
          "indexed": false,
          "name": "sells",
          "type": "bool"
        }
      ],
      "name": "ActivatedEvent",
      "type": "event"
    },
    {
      "anonymous": false,
      "inputs": [
        {
          "indexed": false,
          "name": "tokens",
          "type": "uint256"
        }
      ],
      "name": "MakerWithdrewAsset",
      "type": "event"
    },
    {
      "anonymous": false,
      "inputs": [
        {
          "indexed": false,
          "name": "tokenAddress",
          "type": "address"
        },
        {
          "indexed": false,
          "name": "tokens",
          "type": "uint256"
        }
      ],
      "name": "MakerWithdrewERC20Token",
      "type": "event"
    },
    {
      "anonymous": false,
      "inputs": [
        {
          "indexed": false,
          "name": "ethers",
          "type": "uint256"
        }
      ],
      "name": "MakerWithdrewEther",
      "type": "event"
    },
    {
      "anonymous": false,
      "inputs": [
        {
          "indexed": true,
          "name": "buyer",
          "type": "address"
        },
        {
          "indexed": false,
          "name": "ethersSent",
          "type": "uint256"
        },
        {
          "indexed": false,
          "name": "ethersReturned",
          "type": "uint256"
        },
        {
          "indexed": false,
          "name": "tokensBought",
          "type": "uint256"
        }
      ],
      "name": "TakerBoughtAsset",
      "type": "event"
    },
    {
      "anonymous": false,
      "inputs": [
        {
          "indexed": true,
          "name": "previousOwner",
          "type": "address"
        },
        {
          "indexed": true,
          "name": "newOwner",
          "type": "address"
        }
      ],
      "name": "OwnershipTransferred",
      "type": "event"
    }
  ],
  "bytecode": "0x6060604052341561000f57600080fd5b604051608080610f0683398101604052808051906020019091908051906020019091908051906020019091908051906020019091905050336000806101000a81548173ffffffffffffffffffffffffffffffffffffffff021916908373ffffffffffffffffffffffffffffffffffffffff16021790555083600160006101000a81548173ffffffffffffffffffffffffffffffffffffffff021916908373ffffffffffffffffffffffffffffffffffffffff160217905550826002819055508160038190555080600460006101000a81548160ff0219169083151502179055507fce78b7525a161aee9986871a8dcad7e2783f9a4d66383783243cf14ec7086f85600460009054906101000a900460ff16604051808215151515815260200191505060405180910390a150505050610dba8061014c6000396000f3006060604052600436106100af576000357c0100000000000000000000000000000000000000000000000000000000900463ffffffff1680632170ebf7146100b157806338d52e0f146100ec5780634b750334146101415780634ca50f591461016a5780638da5cb5b14610197578063976a8435146101ec578063c34764cf14610215578063c60ccb0e1461026f578063cd53a3b714610279578063ce5e84a3146102b4578063f2fde38b146102d9575b005b34156100bc57600080fd5b6100d26004808035906020019091905050610697565b604051808215151515815260200191505060405180910390f35b34156100f757600080fd5b6100ff6107b2565b604051808273ffffffffffffffffffffffffffffffffffffffff1673ffffffffffffffffffffffffffffffffffffffff16815260200191505060405180910390f35b341561014c57600080fd5b6101546107d8565b6040518082815260200191505060405180910390f35b341561017557600080fd5b61017d6107de565b604051808215151515815260200191505060405180910390f35b34156101a257600080fd5b6101aa6107f1565b604051808273ffffffffffffffffffffffffffffffffffffffff1673ffffffffffffffffffffffffffffffffffffffff16815260200191505060405180910390f35b34156101f757600080fd5b6101ff610816565b6040518082815260200191505060405180910390f35b341561022057600080fd5b610255600480803573ffffffffffffffffffffffffffffffffffffffff1690602001909190803590602001909190505061081c565b604051808215151515815260200191505060405180910390f35b610277610312565b005b341561028457600080fd5b61029a60048080359060200190919050506109d3565b604051808215151515815260200191505060405180910390f35b34156102bf57600080fd5b6102d760048080351515906020019091905050610b77565b005b34156102e457600080fd5b610310600480803573ffffffffffffffffffffffffffffffffffffffff16906020019091905050610c39565b005b6000806000600460009054906101000a900460ff168061037e57506000809054906101000a900473ffffffffffffffffffffffffffffffffffffffff1673ffffffffffffffffffffffffffffffffffffffff163373ffffffffffffffffffffffffffffffffffffffff16145b15610651576002543481151561039057fe5b049250600354600160009054906101000a900473ffffffffffffffffffffffffffffffffffffffff1673ffffffffffffffffffffffffffffffffffffffff166370a08231306000604051602001526040518263ffffffff167c0100000000000000000000000000000000000000000000000000000000028152600401808273ffffffffffffffffffffffffffffffffffffffff1673ffffffffffffffffffffffffffffffffffffffff168152602001915050602060405180830381600087803b151561045b57600080fd5b6102c65a03f1151561046c57600080fd5b5050506040518051905081151561047f57fe5b04915060009050600254820234111561049f576002548202340390508192505b60008111156104e9573373ffffffffffffffffffffffffffffffffffffffff166108fc829081150290604051600060405180830381858888f1935050505015156104e857600080fd5b5b60008311156105ea57600160009054906101000a900473ffffffffffffffffffffffffffffffffffffffff1673ffffffffffffffffffffffffffffffffffffffff1663a9059cbb3360035486026000604051602001526040518363ffffffff167c0100000000000000000000000000000000000000000000000000000000028152600401808373ffffffffffffffffffffffffffffffffffffffff1673ffffffffffffffffffffffffffffffffffffffff16815260200182815260200192505050602060405180830381600087803b15156105c357600080fd5b6102c65a03f115156105d457600080fd5b5050506040518051905015156105e957600080fd5b5b3373ffffffffffffffffffffffffffffffffffffffff167f37e948531341be0a8ce95c3833827c6f3559825cb6421e6ff1fe21c3a8b712173483600354870260405180848152602001838152602001828152602001935050505060405180910390a2610692565b3373ffffffffffffffffffffffffffffffffffffffff166108fc349081150290604051600060405180830381858888f19350505050151561069157600080fd5b5b505050565b60008060009054906101000a900473ffffffffffffffffffffffffffffffffffffffff1673ffffffffffffffffffffffffffffffffffffffff163373ffffffffffffffffffffffffffffffffffffffff161415156106f457600080fd5b813073ffffffffffffffffffffffffffffffffffffffff16311015156107a8577f8a93d70d792b644d97d7da8a5798e03bbee85be4537a860a331dbe3ee50eb982826040518082815260200191505060405180910390a16000809054906101000a900473ffffffffffffffffffffffffffffffffffffffff1673ffffffffffffffffffffffffffffffffffffffff166108fc839081150290604051600060405180830381858888f1935050505090506107ad565b600090505b919050565b600160009054906101000a900473ffffffffffffffffffffffffffffffffffffffff1681565b60025481565b600460009054906101000a900460ff1681565b6000809054906101000a900473ffffffffffffffffffffffffffffffffffffffff1681565b60035481565b60008060009054906101000a900473ffffffffffffffffffffffffffffffffffffffff1673ffffffffffffffffffffffffffffffffffffffff163373ffffffffffffffffffffffffffffffffffffffff1614151561087957600080fd5b7ffea8ae97829f3801e6ca15928428931c2a4f3cee1fa7c9b83d959efd246664228383604051808373ffffffffffffffffffffffffffffffffffffffff1673ffffffffffffffffffffffffffffffffffffffff1681526020018281526020019250505060405180910390a18273ffffffffffffffffffffffffffffffffffffffff1663a9059cbb6000809054906101000a900473ffffffffffffffffffffffffffffffffffffffff16846000604051602001526040518363ffffffff167c0100000000000000000000000000000000000000000000000000000000028152600401808373ffffffffffffffffffffffffffffffffffffffff1673ffffffffffffffffffffffffffffffffffffffff16815260200182815260200192505050602060405180830381600087803b15156109b057600080fd5b6102c65a03f115156109c157600080fd5b50505060405180519050905092915050565b60008060009054906101000a900473ffffffffffffffffffffffffffffffffffffffff1673ffffffffffffffffffffffffffffffffffffffff163373ffffffffffffffffffffffffffffffffffffffff16141515610a3057600080fd5b7f1ebbc515a759c3fe8e048867aac7fe458e3a37ac3dd44ffc73a6238cf3003981826040518082815260200191505060405180910390a1600160009054906101000a900473ffffffffffffffffffffffffffffffffffffffff1673ffffffffffffffffffffffffffffffffffffffff1663a9059cbb6000809054906101000a900473ffffffffffffffffffffffffffffffffffffffff16846000604051602001526040518363ffffffff167c0100000000000000000000000000000000000000000000000000000000028152600401808373ffffffffffffffffffffffffffffffffffffffff1673ffffffffffffffffffffffffffffffffffffffff16815260200182815260200192505050602060405180830381600087803b1515610b5557600080fd5b6102c65a03f11515610b6657600080fd5b505050604051805190509050919050565b6000809054906101000a900473ffffffffffffffffffffffffffffffffffffffff1673ffffffffffffffffffffffffffffffffffffffff163373ffffffffffffffffffffffffffffffffffffffff16141515610bd257600080fd5b80600460006101000a81548160ff0219169083151502179055507fce78b7525a161aee9986871a8dcad7e2783f9a4d66383783243cf14ec7086f85600460009054906101000a900460ff16604051808215151515815260200191505060405180910390a150565b6000809054906101000a900473ffffffffffffffffffffffffffffffffffffffff1673ffffffffffffffffffffffffffffffffffffffff163373ffffffffffffffffffffffffffffffffffffffff16141515610c9457600080fd5b600073ffffffffffffffffffffffffffffffffffffffff168173ffffffffffffffffffffffffffffffffffffffff1614151515610cd057600080fd5b8073ffffffffffffffffffffffffffffffffffffffff166000809054906101000a900473ffffffffffffffffffffffffffffffffffffffff1673ffffffffffffffffffffffffffffffffffffffff167f8be0079c531659141344cd1fd0a4f28419497f9722a3daafe3b4186f6b6457e060405160405180910390a3806000806101000a81548173ffffffffffffffffffffffffffffffffffffffff021916908373ffffffffffffffffffffffffffffffffffffffff160217905550505600a165627a7a72305820e7b26090c2f6537722d8a676e161204a06f343970f0b721cc8415852ef1509300029",
  "source": "pragma solidity ^0.4.18;\n\n//import \"../node_modules/zeppelin-solidity/contracts/ownership/Ownable.sol\";\nimport \"./H2ICO.sol\";\n\ncontract TokenSeller is Ownable {\n\n    address public asset;       //token to be traded\n    uint public sellPrice;      //price of the lot\n    uint public units;          //lot size\n\n    bool public sellsTokens;    //bool to check if the contract is selling tokens\n//    MintableToken public token; \n\n    event ActivatedEvent(bool sells);           //event trigger to show that a account sells\n    event MakerWithdrewAsset(uint256 tokens);   //event trigger when account withdraws a token asset\n//    event MakerTransferredAsset(address toTokenSeller, uint256 tokens); //event trigger when account transfers a token asset\n    event MakerWithdrewERC20Token(address tokenAddress, uint256 tokens); //event trigger when account withdraws an ERC20 compliant token asset\n    event MakerWithdrewEther(uint256 ethers);       //event for when seller account withdraws ether from transaction\n    event TakerBoughtAsset(address indexed buyer, uint256 ethersSent, uint256 ethersReturned, uint256 tokensBought);    //event for when buyer account purchases token asset\n\n    /** Constructor Method\n     * Constructor should only be called by the TokenSellerFactory contract\n     * @param _asset address of token asset to be sold for ether\n     * @param _sellPrice  Price sales price of lot \n     * @param _units size of lot \n     * @param _sellsTokens validate that TokenSeller contract has permission to sell from Factory\n     */\n    function TokenSeller(address _asset, uint _sellPrice, uint _units, bool _sellsTokens) public {\n        asset = _asset;\n        sellPrice = _sellPrice;\n        units = _units;\n        sellsTokens = _sellsTokens;\n        ActivatedEvent(sellsTokens);\n    }\n\n    /** Activate/Deactivate contract sell status\n     * Make of the contract can control sell permission of the contract\n     * @param _sellsTokens permission variable\n     */\n    function activate(bool _sellsTokens) public onlyOwner {\n        sellsTokens = _sellsTokens;\n        ActivatedEvent(sellsTokens);\n    }\n\n    /** Withdraw tokens from Contract\n     * Contract Owner can withdraw tokens from the contract, essentially decreasing the order to sell\n     * @param tokens amount of tokens to be withdrawn from the contract\n     * @return confirm confirmation of withdrawal\n     */\n    function makerWithdrawAsset(uint tokens) public onlyOwner returns (bool confirm) {\n        MakerWithdrewAsset(tokens);\n        return StandardToken(asset).transfer(owner, tokens);\n    }\n \n    /** Return Tokens to Contract Maker\n     * Used to return tokens accidentally sent for sale, that is, if the incorrect token type was sent.\n     * Only permissable for contract owner to perform reversal\n     * @param tokenAddress address of token accidentally sent\n     * @param amount amount sent to be reversed\n     * @return confirm confirmation to ensure function executed\n     */\n    function makerWithdrawERC20Token(address tokenAddress, uint amount) public onlyOwner returns (bool confirm) {\n        MakerWithdrewERC20Token(tokenAddress, amount);\n        return StandardToken(tokenAddress).transfer(owner, amount);\n    }\n\n    /** Withdraw Ether from Contract\n     * Maker can withdraw ether sent to contract for trade. Only can be executed by contract owner.\n     * Contract balance is checked to ensure sufficient ether is available for withdrawel.\n     * @param amount ether amount to be withdrawn\n     * @return confirm transaction confirmation\n     */\n    function makerWithdrawEther(uint amount) public onlyOwner returns (bool confirm) {\n        \n        if (this.balance >= amount) {               //check contract balance\n            MakerWithdrewEther(amount);\n            return owner.send(amount);\n        }\n        return false;\n    }\n\n    /** Taker Purchases Token\n     * The taker is able to purchase tokens offered by the contract with thei ether.\n     * \n     * TO DO: (1) Remove depreacted 'throw' commands and replace with 'require()' or suitable counterpart\n              (2) Fix \"else if\" parse error\n     */\n    function takerBuyAsset() payable public {\n        if (sellsTokens || msg.sender == owner) {\n            // Note that sellPrice has already been validated as > 0\n            uint order = msg.value / sellPrice;\n            // Note that units has already been validated as > 0\n            uint can_sell = StandardToken(asset).balanceOf(address(this)) / units;\n            uint change = 0;\n            if (msg.value > (can_sell * sellPrice)) {\n                change = msg.value - (can_sell * sellPrice);\n                order = can_sell;\n            }\n            if (change > 0) {\n                require(msg.sender.send(change));\n            }\n            if (order > 0) {\n                require(StandardToken(asset).transfer(msg.sender, order * units));\n            }\n            TakerBoughtAsset(msg.sender, msg.value, change, order * units);\n        } else {\n            // Return user funds if the contract is not selling \n            require(msg.sender.send(msg.value));\n        }\n    }\n    \n    /** Fallback function \n     */\n    function() payable public {\n        takerBuyAsset;\n    }\n\n}",
  "sourcePath": "/home/shaheen/finalhackathon/UnlockTheBlock/oz-workspace/contracts/TokenSeller.sol",
  "compiler": {
    "name": "solc",
    "version": "0.4.18+commit.9cf6e910.Emscripten.clang"
  },
  "schemaVersion": "1.0.1",
  "updatedAt": "2018-01-31T19:19:13.930Z"
}